{
  "contractName": "BirdOracle",
  "abi": [
    {
      "inputs": [
        {
          "internalType": "address",
          "name": "birdOraclePaymentAddr",
          "type": "address"
        }
      ],
      "stateMutability": "nonpayable",
      "type": "constructor"
    },
    {
      "anonymous": false,
      "inputs": [
        {
          "indexed": false,
          "internalType": "uint256",
          "name": "id",
          "type": "uint256"
        },
        {
          "indexed": false,
          "internalType": "address",
          "name": "ethAddress",
          "type": "address"
        },
        {
          "indexed": false,
          "internalType": "string",
          "name": "key",
          "type": "string"
        }
      ],
      "name": "OffChainRequest",
      "type": "event"
    },
    {
      "anonymous": false,
      "inputs": [
        {
          "indexed": false,
          "internalType": "address",
          "name": "provider",
          "type": "address"
        }
      ],
      "name": "ProviderAdded",
      "type": "event"
    },
    {
      "anonymous": false,
      "inputs": [
        {
          "indexed": false,
          "internalType": "address",
          "name": "provider",
          "type": "address"
        }
      ],
      "name": "ProviderRemoved",
      "type": "event"
    },
    {
      "anonymous": false,
      "inputs": [
        {
          "indexed": false,
          "internalType": "uint256",
          "name": "id",
          "type": "uint256"
        },
        {
          "indexed": false,
          "internalType": "address",
          "name": "ethAddress",
          "type": "address"
        },
        {
          "indexed": false,
          "internalType": "string",
          "name": "key",
          "type": "string"
        },
        {
          "indexed": false,
          "internalType": "uint256",
          "name": "value",
          "type": "uint256"
        }
      ],
      "name": "UpdatedRequest",
      "type": "event"
    },
    {
      "inputs": [],
      "name": "birdNest",
      "outputs": [
        {
          "internalType": "uint256",
          "name": "",
          "type": "uint256"
        }
      ],
      "stateMutability": "view",
      "type": "function"
    },
    {
      "inputs": [],
      "name": "minConsensusPercentage",
      "outputs": [
        {
          "internalType": "uint256",
          "name": "",
          "type": "uint256"
        }
      ],
      "stateMutability": "view",
      "type": "function"
    },
    {
      "inputs": [
        {
          "internalType": "uint256",
          "name": "",
          "type": "uint256"
        }
      ],
      "name": "onChainRequests",
      "outputs": [
        {
          "internalType": "uint256",
          "name": "id",
          "type": "uint256"
        },
        {
          "internalType": "address",
          "name": "ethAddress",
          "type": "address"
        },
        {
          "internalType": "string",
          "name": "key",
          "type": "string"
        },
        {
          "internalType": "uint256",
          "name": "value",
          "type": "uint256"
        },
        {
          "internalType": "bool",
          "name": "resolved",
          "type": "bool"
        }
      ],
      "stateMutability": "view",
      "type": "function"
    },
    {
      "inputs": [],
      "name": "owner",
      "outputs": [
        {
          "internalType": "address",
          "name": "",
          "type": "address"
        }
      ],
      "stateMutability": "view",
      "type": "function"
    },
    {
      "inputs": [
        {
          "internalType": "address",
          "name": "",
          "type": "address"
        }
      ],
      "name": "ratings",
      "outputs": [
        {
          "internalType": "uint256",
          "name": "",
          "type": "uint256"
        }
      ],
      "stateMutability": "view",
      "type": "function"
    },
    {
      "inputs": [],
      "name": "trackId",
      "outputs": [
        {
          "internalType": "uint256",
          "name": "",
          "type": "uint256"
        }
      ],
      "stateMutability": "view",
      "type": "function"
    },
    {
      "inputs": [],
      "name": "getLoan",
      "outputs": [
        {
          "internalType": "uint256",
          "name": "",
          "type": "uint256"
        }
      ],
      "stateMutability": "view",
      "type": "function"
    },
    {
      "inputs": [
        {
          "internalType": "address",
          "name": "_provider",
          "type": "address"
        }
      ],
      "name": "addProvider",
      "outputs": [],
      "stateMutability": "nonpayable",
      "type": "function"
    },
    {
      "inputs": [
        {
          "internalType": "address",
          "name": "_provider",
          "type": "address"
        }
      ],
      "name": "removeProvider",
      "outputs": [],
      "stateMutability": "nonpayable",
      "type": "function"
    },
    {
      "inputs": [
        {
          "internalType": "address",
          "name": "_ethAddress",
          "type": "address"
        },
        {
          "internalType": "string",
          "name": "_key",
          "type": "string"
        }
      ],
      "name": "newChainRequest",
      "outputs": [],
      "stateMutability": "nonpayable",
      "type": "function"
    },
    {
      "inputs": [
        {
          "internalType": "uint256",
          "name": "_id",
          "type": "uint256"
        },
        {
          "internalType": "uint256",
          "name": "_valueResponse",
          "type": "uint256"
        }
      ],
      "name": "updatedChainRequest",
      "outputs": [],
      "stateMutability": "nonpayable",
      "type": "function"
    },
    {
      "inputs": [
        {
          "internalType": "address",
          "name": "_addr",
          "type": "address"
        }
      ],
      "name": "getRatingByAddress",
      "outputs": [
        {
          "internalType": "uint256",
          "name": "",
          "type": "uint256"
        }
      ],
      "stateMutability": "view",
      "type": "function"
    },
    {
      "inputs": [],
      "name": "getRating",
      "outputs": [
        {
          "internalType": "uint256",
          "name": "",
          "type": "uint256"
        }
      ],
      "stateMutability": "view",
      "type": "function"
    }
  ],
  "bytecode": "0x60806040526113886003556000600455600060055534801561002057600080fd5b506040516200178d3803806200178d8339818101604052602081101561004557600080fd5b810190808051906020019092919050505033600260006101000a81548173ffffffffffffffffffffffffffffffffffffffff021916908373ffffffffffffffffffffffffffffffffffffffff1602179055506100ba7335fa8692eb10f87d17cd27fb5488598d33b023e561014660201b60201c565b6100dd7358fd79d34edc6362f92c6799ee46945113a6ea9161014660201b60201c565b610100730e4338dfeda53bc35467a09da483410664d34e8861014660201b60201c565b806000806101000a81548173ffffffffffffffffffffffffffffffffffffffff021916908373ffffffffffffffffffffffffffffffffffffffff16021790555050610369565b600260009054906101000a900473ffffffffffffffffffffffffffffffffffffffff1673ffffffffffffffffffffffffffffffffffffffff163373ffffffffffffffffffffffffffffffffffffffff1614610209576040517f08c379a000000000000000000000000000000000000000000000000000000000815260040180806020018281038252601c8152602001807f4f776e65722063616e2063616c6c20746869732066756e6374696f6e0000000081525060200191505060405180910390fd5b600060ff16600660008373ffffffffffffffffffffffffffffffffffffffff1673ffffffffffffffffffffffffffffffffffffffff16815260200190815260200160002054146102c1576040517f08c379a000000000000000000000000000000000000000000000000000000000815260040180806020018281038252601a8152602001807f50726f766964657220697320616c72656164792061646465642e00000000000081525060200191505060405180910390fd5b600160ff16600660008373ffffffffffffffffffffffffffffffffffffffff1673ffffffffffffffffffffffffffffffffffffffff16815260200190815260200160002081905550600460008154600101919050819055507fae9c2c6481964847714ce58f65a7f6dcc41d0d8394449bacdf161b5920c4744a81604051808273ffffffffffffffffffffffffffffffffffffffff16815260200191505060405180910390a150565b61141480620003796000396000f3fe608060405234801561001057600080fd5b50600436106100cf5760003560e01c80639478b96e1161008c5780639e01dfbb116100665780639e01dfbb1461033b578063a137a25014610393578063fbf40624146103cb578063fd5fa14e146103e9576100cf565b80639478b96e146102a7578063955b4315146102c557806398ea32301461031d576100cf565b806305cf8d5d146100d457806346e2577a146100f25780634859b3f41461013657806376c37231146101545780638a355a571461022f5780638da5cb5b14610273575b600080fd5b6100dc6104c4565b6040518082815260200191505060405180910390f35b6101346004803603602081101561010857600080fd5b81019080803573ffffffffffffffffffffffffffffffffffffffff16906020019092919050505061050b565b005b61013e61072e565b6040518082815260200191505060405180910390f35b6101806004803603602081101561016a57600080fd5b8101908080359060200190929190505050610809565b604051808681526020018573ffffffffffffffffffffffffffffffffffffffff168152602001806020018481526020018315158152602001828103825285818151815260200191508051906020019080838360005b838110156101f05780820151818401526020810190506101d5565b50505050905090810190601f16801561021d5780820380516001836020036101000a031916815260200191505b50965050505050505060405180910390f35b6102716004803603602081101561024557600080fd5b81019080803573ffffffffffffffffffffffffffffffffffffffff169060200190929190505050610911565b005b61027b610b35565b604051808273ffffffffffffffffffffffffffffffffffffffff16815260200191505060405180910390f35b6102af610b5b565b6040518082815260200191505060405180910390f35b610307600480360360208110156102db57600080fd5b81019080803573ffffffffffffffffffffffffffffffffffffffff169060200190929190505050610b61565b6040518082815260200191505060405180910390f35b610325610baa565b6040518082815260200191505060405180910390f35b61037d6004803603602081101561035157600080fd5b81019080803573ffffffffffffffffffffffffffffffffffffffff169060200190929190505050610bb0565b6040518082815260200191505060405180910390f35b6103c9600480360360408110156103a957600080fd5b810190808035906020019092919080359060200190929190505050610bc8565b005b6103d3610fd3565b6040518082815260200191505060405180910390f35b6104c2600480360360408110156103ff57600080fd5b81019080803573ffffffffffffffffffffffffffffffffffffffff1690602001909291908035906020019064010000000081111561043c57600080fd5b82018360208201111561044e57600080fd5b8035906020019184600183028401116401000000008311171561047057600080fd5b91908080601f016020809104026020016040519081016040528093929190818152602001838380828437600081840152601f19601f820116905080830192505050505050509192919290505050610fd9565b005b6000600760003373ffffffffffffffffffffffffffffffffffffffff1673ffffffffffffffffffffffffffffffffffffffff16815260200190815260200160002054905090565b600260009054906101000a900473ffffffffffffffffffffffffffffffffffffffff1673ffffffffffffffffffffffffffffffffffffffff163373ffffffffffffffffffffffffffffffffffffffff16146105ce576040517f08c379a000000000000000000000000000000000000000000000000000000000815260040180806020018281038252601c8152602001807f4f776e65722063616e2063616c6c20746869732066756e6374696f6e0000000081525060200191505060405180910390fd5b600060ff16600660008373ffffffffffffffffffffffffffffffffffffffff1673ffffffffffffffffffffffffffffffffffffffff1681526020019081526020016000205414610686576040517f08c379a000000000000000000000000000000000000000000000000000000000815260040180806020018281038252601a8152602001807f50726f766964657220697320616c72656164792061646465642e00000000000081525060200191505060405180910390fd5b600160ff16600660008373ffffffffffffffffffffffffffffffffffffffff1673ffffffffffffffffffffffffffffffffffffffff16815260200190815260200160002081905550600460008154600101919050819055507fae9c2c6481964847714ce58f65a7f6dcc41d0d8394449bacdf161b5920c4744a81604051808273ffffffffffffffffffffffffffffffffffffffff16815260200191505060405180910390a150565b60008060009054906101000a900473ffffffffffffffffffffffffffffffffffffffff1673ffffffffffffffffffffffffffffffffffffffff1663673448dd306040518263ffffffff1660e01b8152600401808273ffffffffffffffffffffffffffffffffffffffff16815260200191505060206040518083038186803b1580156107b857600080fd5b505afa1580156107cc573d6000803e3d6000fd5b505050506040513d60208110156107e257600080fd5b81019080805190602001909291905050506107fe576000610801565b600a5b60ff16905090565b6001818154811061081657fe5b90600052602060002090600702016000915090508060000154908060010160009054906101000a900473ffffffffffffffffffffffffffffffffffffffff1690806002018054600181600116156101000203166002900480601f0160208091040260200160405190810160405280929190818152602001828054600181600116156101000203166002900480156108ee5780601f106108c3576101008083540402835291602001916108ee565b820191906000526020600020905b8154815290600101906020018083116108d157829003601f168201915b5050505050908060030154908060040160009054906101000a900460ff16905085565b600260009054906101000a900473ffffffffffffffffffffffffffffffffffffffff1673ffffffffffffffffffffffffffffffffffffffff163373ffffffffffffffffffffffffffffffffffffffff16146109d4576040517f08c379a000000000000000000000000000000000000000000000000000000000815260040180806020018281038252601c8152602001807f4f776e65722063616e2063616c6c20746869732066756e6374696f6e0000000081525060200191505060405180910390fd5b600160ff16600660008373ffffffffffffffffffffffffffffffffffffffff1673ffffffffffffffffffffffffffffffffffffffff1681526020019081526020016000205414610a8c576040517f08c379a000000000000000000000000000000000000000000000000000000000815260040180806020018281038252601c8152602001807f50726f766964657220697320616c72656164792072656d6f7665642e0000000081525060200191505060405180910390fd5b600060ff16600660008373ffffffffffffffffffffffffffffffffffffffff1673ffffffffffffffffffffffffffffffffffffffff1681526020019081526020016000208190555060046000815460019003919050819055507f1589f8555933761a3cff8aa925061be3b46e2dd43f621322ab611d300f62b1d981604051808273ffffffffffffffffffffffffffffffffffffffff16815260200191505060405180910390a150565b600260009054906101000a900473ffffffffffffffffffffffffffffffffffffffff1681565b60035481565b6000600760008373ffffffffffffffffffffffffffffffffffffffff1673ffffffffffffffffffffffffffffffffffffffff168152602001908152602001600020549050919050565b60045481565b60076020528060005260406000206000915090505481565b600060018381548110610bd757fe5b90600052602060002090600702019050600015158160040160009054906101000a900460ff16151514610c55576040517f08c379a00000000000000000000000000000000000000000000000000000000081526004018080602001828103825260318152602001806113ae6031913960400191505060405180910390fd5b600160ff16600660003373ffffffffffffffffffffffffffffffffffffffff1673ffffffffffffffffffffffffffffffffffffffff1681526020019081526020016000205414610cf0576040517f08c379a000000000000000000000000000000000000000000000000000000000815260040180806020018281038252602381526020018061138b6023913960400191505060405180910390fd5b600060ff168160060160003373ffffffffffffffffffffffffffffffffffffffff1673ffffffffffffffffffffffffffffffffffffffff1681526020019081526020016000205414610daa576040517f08c379a000000000000000000000000000000000000000000000000000000000815260040180806020018281038252601e8152602001807f4572726f723a20596f75206861766520616c726561647920766f7465642e000081525060200191505060405180910390fd5b600260ff168160060160003373ffffffffffffffffffffffffffffffffffffffff1673ffffffffffffffffffffffffffffffffffffffff168152602001908152602001600020819055506000816005016000848152602001908152602001600020600081546001019190508190559050610e226111bb565b8110610fcd5760018260040160006101000a81548160ff02191690831515021790555082826003018190555082600760008460010160009054906101000a900473ffffffffffffffffffffffffffffffffffffffff1673ffffffffffffffffffffffffffffffffffffffff1673ffffffffffffffffffffffffffffffffffffffff168152602001908152602001600020819055507f9531595c5c00a6c9f988db25ffcf14298458d0412319d740301087730421484e82600001548360010160009054906101000a900473ffffffffffffffffffffffffffffffffffffffff16846002018560030154604051808581526020018473ffffffffffffffffffffffffffffffffffffffff16815260200180602001838152602001828103825284818154600181600116156101000203166002900481526020019150805460018160011615610100020316600290048015610fbb5780601f10610f9057610100808354040283529160200191610fbb565b820191906000526020600020905b815481529060010190602001808311610f9e57829003601f168201915b50509550505050505060405180910390a15b50505050565b60055481565b60016040518060a0016040528060055481526020018473ffffffffffffffffffffffffffffffffffffffff168152602001838152602001600081526020016000151581525090806001815401808255809150506001900390600052602060002090600702016000909190919091506000820151816000015560208201518160010160006101000a81548173ffffffffffffffffffffffffffffffffffffffff021916908373ffffffffffffffffffffffffffffffffffffffff16021790555060408201518160020190805190602001906110b49291906112ed565b506060820151816003015560808201518160040160006101000a81548160ff02191690831515021790555050507f28ac703d033e970fd29eac4b6228bfb41686470bcba7bcc0b5a8dbb773a5c55d6005548383604051808481526020018373ffffffffffffffffffffffffffffffffffffffff16815260200180602001828103825283818151815260200191508051906020019080838360005b8381101561116957808201518184015260208101905061114e565b50505050905090810190601f1680156111965780820380516001836020036101000a031916815260200191505b5094505050505060405180910390a16005600081548092919060010191905055505050565b6000806111d460026004546111dd90919063ffffffff16565b90508091505090565b600061121f83836040518060400160405280601a81526020017f536166654d6174683a206469766973696f6e206279207a65726f000000000000815250611227565b905092915050565b600080831182906112d3576040517f08c379a00000000000000000000000000000000000000000000000000000000081526004018080602001828103825283818151815260200191508051906020019080838360005b8381101561129857808201518184015260208101905061127d565b50505050905090810190601f1680156112c55780820380516001836020036101000a031916815260200191505b509250505060405180910390fd5b5060008385816112df57fe5b049050809150509392505050565b828054600181600116156101000203166002900490600052602060002090601f016020900481019282601f1061132e57805160ff191683800117855561135c565b8280016001018555821561135c579182015b8281111561135b578251825591602001919060010190611340565b5b509050611369919061136d565b5090565b5b8082111561138657600081600090555060010161136e565b509056fe4572726f723a20596f7520617265206e6f7420616c6c6f77656420746f20766f74652e4572726f723a20436f6e73656e73757320697320636f6d706c65746520736f20796f752063616e206e6f7420766f74652ea2646970667358221220c0444d1961662151c9cba8d33a4029b7aeb2d673f0cfcb7eb1900e61ac6ecdcf64736f6c634300060c0033",
  "immutableReferences": {},
  "source": "//This contract's last version is at https://kovan.etherscan.io/address/0x14A95EC3ae9405E427595c99973447b55250Add8#code\n// added feature: add/remove provider\n\n// SPDX-License-Identifier: MIT\n\n/**\nBird On-chain Oracle to confirm rating with 2+ consensus before update using the off-chain API https://www.bird.money/docs\n*/\n\npragma solidity 0.6.12;\nimport \"./BirdOraclePayment.sol\";\n\ncontract BirdOracle {\n    using SafeMath for uint256;\n\n    BirdOraclePayment payment;\n\n    function getLoan() public view returns (uint256) {\n        return payment.isApproved(address(this)) ? 10 : 0;\n    }\n\n    BirdRequest[] public onChainRequests; //keep track of list of on-chain\n\n    address public owner;\n\n    uint256 public minConsensusPercentage = 5000; //minimum number of consensus before confirmation\n    uint256 public birdNest = 0; // birds in nest count\n    uint256 public trackId = 0;\n\n    uint8 constant NOT_TRUSTED = 0;\n\n    uint8 constant NOT_VOTED = 0;\n    uint8 constant TRUSTED = 1;\n    uint8 constant VOTED = 2;\n\n    mapping(address => uint256) nest; //offchain data provider address => TRUSTED or NOT\n\n    /**\n     * Bird Standard API Request\n     * id: \"1\"\n     * ethAddress: address(0xcF01971DB0CAB2CBeE4A8C21BB7638aC1FA1c38c)\n     * key: \"bird_rating\"\n     * value: 400000000000000000   // 4.0\n     * resolved: true / false\n     * response: 000000010000=> 2  (specific answer => number of votes of that answer)\n     * nest: approved off-chain oracles nest/addresses and keep track of vote (1= TRUSTED and not voted, 2=voted)\n     */\n\n    struct BirdRequest {\n        uint256 id;\n        address ethAddress;\n        string key;\n        uint256 value;\n        bool resolved;\n        mapping(uint256 => uint256) response; //specific answer => number of votes of that answer\n        mapping(address => uint256) nest; //offchain data provider address => VOTED or NOT\n    }\n\n    mapping(address => uint256) public ratings; //saved ratings after consensus\n\n    /**\n     * Bird Standard API Request\n     * Off-Chain-Request from outside the blockchain\n     */\n    event OffChainRequest(uint256 id, address ethAddress, string key);\n\n    /**\n     * To call when there is consensus on final result\n     */\n    event UpdatedRequest(\n        uint256 id,\n        address ethAddress,\n        string key,\n        uint256 value\n    );\n\n    event ProviderAdded(address provider);\n    event ProviderRemoved(address provider);\n\n    constructor(address birdOraclePaymentAddr) public {\n        owner = msg.sender;\n        /**\n         * Add some TRUSTED oracles in bird nest\n         */\n        addProvider(0x35fA8692EB10F87D17Cd27fB5488598D33B023E5);\n        addProvider(0x58Fd79D34Edc6362f92c6799eE46945113A6EA91);\n        addProvider(0x0e4338DFEdA53Bc35467a09Da483410664d34e88);\n\n        payment = BirdOraclePayment(birdOraclePaymentAddr);\n    }\n\n    function addProvider(address _provider) public {\n        require(msg.sender == owner, \"Owner can call this function\");\n        require(nest[_provider] == NOT_TRUSTED, \"Provider is already added.\");\n\n        nest[_provider] = TRUSTED;\n        ++birdNest;\n\n        emit ProviderAdded(_provider);\n    }\n\n    function removeProvider(address _provider) public {\n        require(msg.sender == owner, \"Owner can call this function\");\n        require(nest[_provider] == TRUSTED, \"Provider is already removed.\");\n\n        nest[_provider] = NOT_TRUSTED;\n        --birdNest;\n\n        emit ProviderRemoved(_provider);\n    }\n\n    function newChainRequest(address _ethAddress, string memory _key) public {\n        onChainRequests.push(\n            BirdRequest({\n                id: trackId,\n                ethAddress: _ethAddress,\n                key: _key,\n                value: 0, // if resolved is true then read value\n                resolved: false // if resolved is false then value do not matter\n            })\n        );\n\n        /**\n         * Off-Chain event trigger\n         */\n        emit OffChainRequest(trackId, _ethAddress, _key);\n\n        /**\n         * update total number of requests\n         */\n        trackId++;\n    }\n\n    /**\n     * called by the Off-Chain oracle to record its answer\n     */\n    function updatedChainRequest(uint256 _id, uint256 _valueResponse) public {\n        BirdRequest storage req = onChainRequests[_id];\n\n        require(\n            req.resolved == false,\n            \"Error: Consensus is complete so you can not vote.\"\n        );\n        require(\n            nest[address(msg.sender)] == TRUSTED,\n            \"Error: You are not allowed to vote.\"\n        );\n\n        require(\n            req.nest[address(msg.sender)] == NOT_VOTED,\n            \"Error: You have already voted.\"\n        );\n\n        req.nest[msg.sender] = VOTED;\n        uint256 thisAnswerVotes = ++req.response[_valueResponse];\n\n        if (thisAnswerVotes >= _minConsensus()) {\n            req.resolved = true;\n            req.value = _valueResponse;\n            ratings[req.ethAddress] = _valueResponse;\n            emit UpdatedRequest(req.id, req.ethAddress, req.key, req.value);\n        }\n    }\n\n    function _minConsensus() private view returns (uint256) {\n        uint256 minConsensus = birdNest.div(2);\n        return minConsensus;\n    }\n\n    function getRatingByAddress(address _addr) public view returns (uint256) {\n        return ratings[_addr];\n    }\n\n    function getRating() public view returns (uint256) {\n        return ratings[msg.sender];\n    }\n}\n",
  "sourcePath": "/home/muneeb/work/bird-contract/contracts/BirdOracle.sol",
  "compiler": {
    "name": "solc",
    "version": "0.6.12+commit.27d51765.Emscripten.clang"
  },
  "schemaVersion": "3.3.3",
  "updatedAt": "2021-02-23T15:37:39.968Z",
  "devdoc": {
    "kind": "dev",
    "methods": {},
    "version": 1
  },
  "userdoc": {
    "events": {
      "OffChainRequest(uint256,address,string)": {
        "notice": "Bird Standard API Request Off-Chain-Request from outside the blockchain"
      },
      "UpdatedRequest(uint256,address,string,uint256)": {
        "notice": "To call when there is consensus on final result"
      }
    },
    "kind": "user",
    "methods": {
      "updatedChainRequest(uint256,uint256)": {
        "notice": "called by the Off-Chain oracle to record its answer"
      }
    },
    "version": 1
  }
}