{
  "contractName": "BirdOracle",
  "abi": [
    {
      "inputs": [
        {
          "internalType": "address",
          "name": "_birdTokenAddr",
          "type": "address"
        }
      ],
      "stateMutability": "nonpayable",
      "type": "constructor"
    },
    {
      "anonymous": false,
      "inputs": [
        {
          "indexed": false,
          "internalType": "uint256",
          "name": "id",
          "type": "uint256"
        },
        {
          "indexed": false,
          "internalType": "address",
          "name": "ethAddress",
          "type": "address"
        },
        {
          "indexed": false,
          "internalType": "string",
          "name": "key",
          "type": "string"
        }
      ],
      "name": "OffChainRequest",
      "type": "event"
    },
    {
      "anonymous": false,
      "inputs": [
        {
          "indexed": true,
          "internalType": "address",
          "name": "previousOwner",
          "type": "address"
        },
        {
          "indexed": true,
          "internalType": "address",
          "name": "newOwner",
          "type": "address"
        }
      ],
      "name": "OwnershipTransferred",
      "type": "event"
    },
    {
      "anonymous": false,
      "inputs": [
        {
          "indexed": false,
          "internalType": "address",
          "name": "provider",
          "type": "address"
        }
      ],
      "name": "ProviderAdded",
      "type": "event"
    },
    {
      "anonymous": false,
      "inputs": [
        {
          "indexed": false,
          "internalType": "address",
          "name": "provider",
          "type": "address"
        }
      ],
      "name": "ProviderRemoved",
      "type": "event"
    },
    {
      "anonymous": false,
      "inputs": [
        {
          "indexed": false,
          "internalType": "uint256",
          "name": "id",
          "type": "uint256"
        },
        {
          "indexed": false,
          "internalType": "address",
          "name": "ethAddress",
          "type": "address"
        },
        {
          "indexed": false,
          "internalType": "string",
          "name": "key",
          "type": "string"
        },
        {
          "indexed": false,
          "internalType": "uint256",
          "name": "value",
          "type": "uint256"
        }
      ],
      "name": "UpdatedRequest",
      "type": "event"
    },
    {
      "inputs": [],
      "name": "birdNest",
      "outputs": [
        {
          "internalType": "uint256",
          "name": "",
          "type": "uint256"
        }
      ],
      "stateMutability": "view",
      "type": "function",
      "constant": true
    },
    {
      "inputs": [],
      "name": "birdToken",
      "outputs": [
        {
          "internalType": "contract IERC20",
          "name": "",
          "type": "address"
        }
      ],
      "stateMutability": "view",
      "type": "function",
      "constant": true
    },
    {
      "inputs": [
        {
          "internalType": "address",
          "name": "",
          "type": "address"
        }
      ],
      "name": "dueDateOf",
      "outputs": [
        {
          "internalType": "uint256",
          "name": "",
          "type": "uint256"
        }
      ],
      "stateMutability": "view",
      "type": "function",
      "constant": true
    },
    {
      "inputs": [],
      "name": "minConsensus",
      "outputs": [
        {
          "internalType": "uint256",
          "name": "",
          "type": "uint256"
        }
      ],
      "stateMutability": "view",
      "type": "function",
      "constant": true
    },
    {
      "inputs": [
        {
          "internalType": "uint256",
          "name": "",
          "type": "uint256"
        }
      ],
      "name": "onChainRequests",
      "outputs": [
        {
          "internalType": "uint256",
          "name": "id",
          "type": "uint256"
        },
        {
          "internalType": "address",
          "name": "ethAddress",
          "type": "address"
        },
        {
          "internalType": "string",
          "name": "key",
          "type": "string"
        },
        {
          "internalType": "uint256",
          "name": "value",
          "type": "uint256"
        },
        {
          "internalType": "bool",
          "name": "resolved",
          "type": "bool"
        }
      ],
      "stateMutability": "view",
      "type": "function",
      "constant": true
    },
    {
      "inputs": [],
      "name": "owner",
      "outputs": [
        {
          "internalType": "address",
          "name": "",
          "type": "address"
        }
      ],
      "stateMutability": "view",
      "type": "function",
      "constant": true
    },
    {
      "inputs": [],
      "name": "priceToAccessOracle",
      "outputs": [
        {
          "internalType": "uint256",
          "name": "",
          "type": "uint256"
        }
      ],
      "stateMutability": "view",
      "type": "function",
      "constant": true
    },
    {
      "inputs": [
        {
          "internalType": "uint256",
          "name": "",
          "type": "uint256"
        }
      ],
      "name": "providers",
      "outputs": [
        {
          "internalType": "address",
          "name": "",
          "type": "address"
        }
      ],
      "stateMutability": "view",
      "type": "function",
      "constant": true
    },
    {
      "inputs": [],
      "name": "renounceOwnership",
      "outputs": [],
      "stateMutability": "nonpayable",
      "type": "function"
    },
    {
      "inputs": [],
      "name": "trackId",
      "outputs": [
        {
          "internalType": "uint256",
          "name": "",
          "type": "uint256"
        }
      ],
      "stateMutability": "view",
      "type": "function",
      "constant": true
    },
    {
      "inputs": [
        {
          "internalType": "address",
          "name": "newOwner",
          "type": "address"
        }
      ],
      "name": "transferOwnership",
      "outputs": [],
      "stateMutability": "nonpayable",
      "type": "function"
    },
    {
      "inputs": [
        {
          "internalType": "address",
          "name": "_provider",
          "type": "address"
        }
      ],
      "name": "addProvider",
      "outputs": [],
      "stateMutability": "nonpayable",
      "type": "function"
    },
    {
      "inputs": [
        {
          "internalType": "address",
          "name": "_provider",
          "type": "address"
        }
      ],
      "name": "removeProvider",
      "outputs": [],
      "stateMutability": "nonpayable",
      "type": "function"
    },
    {
      "inputs": [
        {
          "internalType": "address",
          "name": "_ethAddress",
          "type": "address"
        },
        {
          "internalType": "string",
          "name": "_key",
          "type": "string"
        }
      ],
      "name": "newChainRequest",
      "outputs": [],
      "stateMutability": "nonpayable",
      "type": "function"
    },
    {
      "inputs": [
        {
          "internalType": "uint256",
          "name": "_id",
          "type": "uint256"
        },
        {
          "internalType": "uint256",
          "name": "_response",
          "type": "uint256"
        }
      ],
      "name": "updatedChainRequest",
      "outputs": [],
      "stateMutability": "nonpayable",
      "type": "function"
    },
    {
      "inputs": [
        {
          "internalType": "address",
          "name": "_ethAddress",
          "type": "address"
        }
      ],
      "name": "getRatingByAddress",
      "outputs": [
        {
          "internalType": "uint256",
          "name": "",
          "type": "uint256"
        }
      ],
      "stateMutability": "view",
      "type": "function",
      "constant": true
    },
    {
      "inputs": [],
      "name": "getRating",
      "outputs": [
        {
          "internalType": "uint256",
          "name": "",
          "type": "uint256"
        }
      ],
      "stateMutability": "view",
      "type": "function",
      "constant": true
    },
    {
      "inputs": [],
      "name": "getProviders",
      "outputs": [
        {
          "internalType": "address[]",
          "name": "",
          "type": "address[]"
        }
      ],
      "stateMutability": "view",
      "type": "function",
      "constant": true
    },
    {
      "inputs": [],
      "name": "sendPayment",
      "outputs": [],
      "stateMutability": "nonpayable",
      "type": "function"
    },
    {
      "inputs": [],
      "name": "rewardProviders",
      "outputs": [],
      "stateMutability": "nonpayable",
      "type": "function"
    },
    {
      "inputs": [],
      "name": "isApproved",
      "outputs": [
        {
          "internalType": "bool",
          "name": "",
          "type": "bool"
        }
      ],
      "stateMutability": "view",
      "type": "function",
      "constant": true
    },
    {
      "inputs": [
        {
          "internalType": "address",
          "name": "_addr",
          "type": "address"
        }
      ],
      "name": "isApproved",
      "outputs": [
        {
          "internalType": "bool",
          "name": "",
          "type": "bool"
        }
      ],
      "stateMutability": "view",
      "type": "function",
      "constant": true
    },
    {
      "inputs": [
        {
          "internalType": "uint256",
          "name": "_minConsensus",
          "type": "uint256"
        }
      ],
      "name": "setMinConsensus",
      "outputs": [],
      "stateMutability": "nonpayable",
      "type": "function"
    },
    {
      "inputs": [],
      "name": "time",
      "outputs": [
        {
          "internalType": "uint256",
          "name": "",
          "type": "uint256"
        }
      ],
      "stateMutability": "view",
      "type": "function",
      "constant": true
    },
    {
      "inputs": [],
      "name": "time1",
      "outputs": [
        {
          "internalType": "uint256",
          "name": "",
          "type": "uint256"
        }
      ],
      "stateMutability": "view",
      "type": "function",
      "constant": true
    },
    {
      "inputs": [],
      "name": "time2",
      "outputs": [
        {
          "internalType": "uint256",
          "name": "",
          "type": "uint256"
        }
      ],
      "stateMutability": "view",
      "type": "function",
      "constant": true
    }
  ],
  "bytecode": "0x60806040526002805560006003556000600455670de0b6b3a76400006009556000600b5534801561002f57600080fd5b5060405162002795380380620027958339818101604052602081101561005457600080fd5b8101908080519060200190929190505050600061007561015a60201b60201c565b9050806000806101000a81548173ffffffffffffffffffffffffffffffffffffffff021916908373ffffffffffffffffffffffffffffffffffffffff1602179055508073ffffffffffffffffffffffffffffffffffffffff16600073ffffffffffffffffffffffffffffffffffffffff167f8be0079c531659141344cd1fd0a4f28419497f9722a3daafe3b4186f6b6457e060405160405180910390a35080600860006101000a81548173ffffffffffffffffffffffffffffffffffffffff021916908373ffffffffffffffffffffffffffffffffffffffff16021790555050610162565b600033905090565b61262380620001726000396000f3fe608060405234801561001057600080fd5b506004361061018e5760003560e01c80638a355a57116100de578063acac2b4811610097578063edc922a911610071578063edc922a914610636578063f2fde38b14610695578063fbf40624146106d9578063fd5fa14e146106f75761018e565b8063acac2b48146105e0578063d6f8ecae146105ea578063d8b7b0f0146106085761018e565b80638a355a57146104625780638da5cb5b146104a6578063955b4315146104da57806398ea323014610532578063a137a25014610550578063aab1867f146105885761018e565b80634992d23e1161014b5780636720ceb1116101255780636720ceb114610319578063673448dd14610323578063715018a61461037d57806376c37231146103875761018e565b80634992d23e146102855780634a3bd672146102a357806350f3fc81146102c15761018e565b806305cf8d5d146101935780630a5e692b146101b157806316ada547146101e557806324da7c281461020357806328f371aa1461022157806346e2577a14610241575b600080fd5b61019b6107d2565b6040518082815260200191505060405180910390f35b6101b9610819565b604051808273ffffffffffffffffffffffffffffffffffffffff16815260200191505060405180910390f35b6101ed61083f565b6040518082815260200191505060405180910390f35b61020b610847565b6040518082815260200191505060405180910390f35b61022961084d565b60405180821515815260200191505060405180910390f35b6102836004803603602081101561025757600080fd5b81019080803573ffffffffffffffffffffffffffffffffffffffff169060200190929190505050610896565b005b61028d610b6e565b6040518082815260200191505060405180910390f35b6102ab610b74565b6040518082815260200191505060405180910390f35b6102ed600480360360208110156102d757600080fd5b8101908080359060200190929190505050610b7f565b604051808273ffffffffffffffffffffffffffffffffffffffff16815260200191505060405180910390f35b610321610bbb565b005b6103656004803603602081101561033957600080fd5b81019080803573ffffffffffffffffffffffffffffffffffffffff169060200190929190505050610d97565b60405180821515815260200191505060405180910390f35b610385610de2565b005b6103b36004803603602081101561039d57600080fd5b8101908080359060200190929190505050610f68565b604051808681526020018573ffffffffffffffffffffffffffffffffffffffff168152602001806020018481526020018315158152602001828103825285818151815260200191508051906020019080838360005b83811015610423578082015181840152602081019050610408565b50505050905090810190601f1680156104505780820380516001836020036101000a031916815260200191505b50965050505050505060405180910390f35b6104a46004803603602081101561047857600080fd5b81019080803573ffffffffffffffffffffffffffffffffffffffff169060200190929190505050611070565b005b6104ae611299565b604051808273ffffffffffffffffffffffffffffffffffffffff16815260200191505060405180910390f35b61051c600480360360208110156104f057600080fd5b81019080803573ffffffffffffffffffffffffffffffffffffffff1690602001909291905050506112c2565b6040518082815260200191505060405180910390f35b61053a6113bd565b6040518082815260200191505060405180910390f35b6105866004803603604081101561056657600080fd5b8101908080359060200190929190803590602001909291905050506113c3565b005b6105ca6004803603602081101561059e57600080fd5b81019080803573ffffffffffffffffffffffffffffffffffffffff1690602001909291905050506117c9565b6040518082815260200191505060405180910390f35b6105e86117e1565b005b6105f2611be9565b6040518082815260200191505060405180910390f35b6106346004803603602081101561061e57600080fd5b8101908080359060200190929190505050611bf6565b005b61063e611cc8565b6040518080602001828103825283818151815260200191508051906020019060200280838360005b83811015610681578082015181840152602081019050610666565b505050509050019250505060405180910390f35b6106d7600480360360208110156106ab57600080fd5b81019080803573ffffffffffffffffffffffffffffffffffffffff169060200190929190505050611e46565b005b6106e1612051565b6040518082815260200191505060405180910390f35b6107d06004803603604081101561070d57600080fd5b81019080803573ffffffffffffffffffffffffffffffffffffffff1690602001909291908035906020019064010000000081111561074a57600080fd5b82018360208201111561075c57600080fd5b8035906020019184600183028401116401000000008311171561077e57600080fd5b91908080601f016020809104026020016040519081016040528093929190818152602001838380828437600081840152601f19601f820116905080830192505050505050509192919290505050612057565b005b6000600760003373ffffffffffffffffffffffffffffffffffffffff1673ffffffffffffffffffffffffffffffffffffffff16815260200190815260200160002054905090565b600860009054906101000a900473ffffffffffffffffffffffffffffffffffffffff1681565b600042905090565b60095481565b6000600a60003373ffffffffffffffffffffffffffffffffffffffff1673ffffffffffffffffffffffffffffffffffffffff168152602001908152602001600020544210905090565b61089e6122eb565b73ffffffffffffffffffffffffffffffffffffffff1660008054906101000a900473ffffffffffffffffffffffffffffffffffffffff1673ffffffffffffffffffffffffffffffffffffffff161461095e576040517f08c379a00000000000000000000000000000000000000000000000000000000081526004018080602001828103825260208152602001807f4f776e61626c653a2063616c6c6572206973206e6f7420746865206f776e657281525060200191505060405180910390fd5b600160ff16600660008373ffffffffffffffffffffffffffffffffffffffff1673ffffffffffffffffffffffffffffffffffffffff168152602001908152602001600020541415610a17576040517f08c379a000000000000000000000000000000000000000000000000000000000815260040180806020018281038252601a8152602001807f50726f766964657220697320616c72656164792061646465642e00000000000081525060200191505060405180910390fd5b600060ff16600660008373ffffffffffffffffffffffffffffffffffffffff1673ffffffffffffffffffffffffffffffffffffffff168152602001908152602001600020541415610ac6576005819080600181540180825580915050600190039060005260206000200160009091909190916101000a81548173ffffffffffffffffffffffffffffffffffffffff021916908373ffffffffffffffffffffffffffffffffffffffff1602179055505b600160ff16600660008373ffffffffffffffffffffffffffffffffffffffff1673ffffffffffffffffffffffffffffffffffffffff16815260200190815260200160002081905550600360008154600101919050819055507fae9c2c6481964847714ce58f65a7f6dcc41d0d8394449bacdf161b5920c4744a81604051808273ffffffffffffffffffffffffffffffffffffffff16815260200191505060405180910390a150565b60025481565b600062278d00905090565b60058181548110610b8c57fe5b906000526020600020016000915054906101000a900473ffffffffffffffffffffffffffffffffffffffff1681565b6000339050600860009054906101000a900473ffffffffffffffffffffffffffffffffffffffff1673ffffffffffffffffffffffffffffffffffffffff166323b872dd82306009546040518463ffffffff1660e01b8152600401808473ffffffffffffffffffffffffffffffffffffffff1681526020018373ffffffffffffffffffffffffffffffffffffffff1681526020018281526020019350505050602060405180830381600087803b158015610c7357600080fd5b505af1158015610c87573d6000803e3d6000fd5b505050506040513d6020811015610c9d57600080fd5b8101908080519060200190929190505050506000600a60008373ffffffffffffffffffffffffffffffffffffffff1673ffffffffffffffffffffffffffffffffffffffff16815260200190815260200160002054905080421015610d495762278d008101600a60008473ffffffffffffffffffffffffffffffffffffffff1673ffffffffffffffffffffffffffffffffffffffff16815260200190815260200160002081905550610d93565b62278d004201600a60008473ffffffffffffffffffffffffffffffffffffffff1673ffffffffffffffffffffffffffffffffffffffff168152602001908152602001600020819055505b5050565b6000600a60008373ffffffffffffffffffffffffffffffffffffffff1673ffffffffffffffffffffffffffffffffffffffff1681526020019081526020016000205442109050919050565b610dea6122eb565b73ffffffffffffffffffffffffffffffffffffffff1660008054906101000a900473ffffffffffffffffffffffffffffffffffffffff1673ffffffffffffffffffffffffffffffffffffffff1614610eaa576040517f08c379a00000000000000000000000000000000000000000000000000000000081526004018080602001828103825260208152602001807f4f776e61626c653a2063616c6c6572206973206e6f7420746865206f776e657281525060200191505060405180910390fd5b600073ffffffffffffffffffffffffffffffffffffffff1660008054906101000a900473ffffffffffffffffffffffffffffffffffffffff1673ffffffffffffffffffffffffffffffffffffffff167f8be0079c531659141344cd1fd0a4f28419497f9722a3daafe3b4186f6b6457e060405160405180910390a360008060006101000a81548173ffffffffffffffffffffffffffffffffffffffff021916908373ffffffffffffffffffffffffffffffffffffffff160217905550565b60018181548110610f7557fe5b90600052602060002090600702016000915090508060000154908060010160009054906101000a900473ffffffffffffffffffffffffffffffffffffffff1690806002018054600181600116156101000203166002900480601f01602080910402602001604051908101604052809291908181526020018280546001816001161561010002031660029004801561104d5780601f106110225761010080835404028352916020019161104d565b820191906000526020600020905b81548152906001019060200180831161103057829003601f168201915b5050505050908060030154908060040160009054906101000a900460ff16905085565b6110786122eb565b73ffffffffffffffffffffffffffffffffffffffff1660008054906101000a900473ffffffffffffffffffffffffffffffffffffffff1673ffffffffffffffffffffffffffffffffffffffff1614611138576040517f08c379a00000000000000000000000000000000000000000000000000000000081526004018080602001828103825260208152602001807f4f776e61626c653a2063616c6c6572206973206e6f7420746865206f776e657281525060200191505060405180910390fd5b600160ff16600660008373ffffffffffffffffffffffffffffffffffffffff1673ffffffffffffffffffffffffffffffffffffffff16815260200190815260200160002054146111f0576040517f08c379a000000000000000000000000000000000000000000000000000000000815260040180806020018281038252601c8152602001807f50726f766964657220697320616c72656164792072656d6f7665642e0000000081525060200191505060405180910390fd5b600260ff16600660008373ffffffffffffffffffffffffffffffffffffffff1673ffffffffffffffffffffffffffffffffffffffff1681526020019081526020016000208190555060036000815460019003919050819055507f1589f8555933761a3cff8aa925061be3b46e2dd43f621322ab611d300f62b1d981604051808273ffffffffffffffffffffffffffffffffffffffff16815260200191505060405180910390a150565b60008060009054906101000a900473ffffffffffffffffffffffffffffffffffffffff16905090565b6000818073ffffffffffffffffffffffffffffffffffffffff163373ffffffffffffffffffffffffffffffffffffffff161480611303575061130261084d565b5b611375576040517f08c379a000000000000000000000000000000000000000000000000000000000815260040180806020018281038252601d8152602001807f506c6561736520706179204249524420746f20426972644f7261636c6500000081525060200191505060405180910390fd5b600760008473ffffffffffffffffffffffffffffffffffffffff1673ffffffffffffffffffffffffffffffffffffffff16815260200190815260200160002054915050919050565b60035481565b6000600183815481106113d257fe5b90600052602060002090600702019050600015158160040160009054906101000a900460ff16151514611450576040517f08c379a00000000000000000000000000000000000000000000000000000000081526004018080602001828103825260318152602001806125bd6031913960400191505060405180910390fd5b600160ff16600660003373ffffffffffffffffffffffffffffffffffffffff1673ffffffffffffffffffffffffffffffffffffffff16815260200190815260200160002054146114eb576040517f08c379a000000000000000000000000000000000000000000000000000000000815260040180806020018281038252602381526020018061254d6023913960400191505060405180910390fd5b600060ff168160060160003373ffffffffffffffffffffffffffffffffffffffff1673ffffffffffffffffffffffffffffffffffffffff16815260200190815260200160002054146115a5576040517f08c379a000000000000000000000000000000000000000000000000000000000815260040180806020018281038252601e8152602001807f4572726f723a20596f75206861766520616c726561647920766f7465642e000081525060200191505060405180910390fd5b600260ff168160060160003373ffffffffffffffffffffffffffffffffffffffff1673ffffffffffffffffffffffffffffffffffffffff16815260200190815260200160002081905550600081600501600084815260200190815260200160002060008154600101919050819055905060025481106117c35760018260040160006101000a81548160ff02191690831515021790555082826003018190555082600760008460010160009054906101000a900473ffffffffffffffffffffffffffffffffffffffff1673ffffffffffffffffffffffffffffffffffffffff1673ffffffffffffffffffffffffffffffffffffffff168152602001908152602001600020819055507f9531595c5c00a6c9f988db25ffcf14298458d0412319d740301087730421484e82600001548360010160009054906101000a900473ffffffffffffffffffffffffffffffffffffffff16846002018560030154604051808581526020018473ffffffffffffffffffffffffffffffffffffffff168152602001806020018381526020018281038252848181546001816001161561010002031660029004815260200191508054600181600116156101000203166002900480156117b15780601f10611786576101008083540402835291602001916117b1565b820191906000526020600020905b81548152906001019060200180831161179457829003601f168201915b50509550505050505060405180910390a15b50505050565b600a6020528060005260406000206000915090505481565b6000600b5442039050620151808111611845576040517f08c379a000000000000000000000000000000000000000000000000000000000815260040180806020018281038252602c815260200180612570602c913960400191505060405180910390fd5b6000603290506000600860009054906101000a900473ffffffffffffffffffffffffffffffffffffffff1673ffffffffffffffffffffffffffffffffffffffff166370a08231306040518263ffffffff1660e01b8152600401808273ffffffffffffffffffffffffffffffffffffffff16815260200191505060206040518083038186803b1580156118d657600080fd5b505afa1580156118ea573d6000803e3d6000fd5b505050506040513d602081101561190057600080fd5b81019080805190602001909291905050509050600061193b606461192d85856122f390919063ffffffff16565b61237990919063ffffffff16565b905060008183039050600061195b6003548361237990919063ffffffff16565b9050600860009054906101000a900473ffffffffffffffffffffffffffffffffffffffff1673ffffffffffffffffffffffffffffffffffffffff1663a9059cbb6119a3611299565b856040518363ffffffff1660e01b8152600401808373ffffffffffffffffffffffffffffffffffffffff16815260200182815260200192505050602060405180830381600087803b1580156119f757600080fd5b505af1158015611a0b573d6000803e3d6000fd5b505050506040513d6020811015611a2157600080fd5b81019080805190602001909291905050505060005b600580549050811015611bd957600160ff166006600060058481548110611a5957fe5b9060005260206000200160009054906101000a900473ffffffffffffffffffffffffffffffffffffffff1673ffffffffffffffffffffffffffffffffffffffff1673ffffffffffffffffffffffffffffffffffffffff168152602001908152602001600020541415611bcc57600860009054906101000a900473ffffffffffffffffffffffffffffffffffffffff1673ffffffffffffffffffffffffffffffffffffffff1663a9059cbb60058381548110611b1057fe5b9060005260206000200160009054906101000a900473ffffffffffffffffffffffffffffffffffffffff16846040518363ffffffff1660e01b8152600401808373ffffffffffffffffffffffffffffffffffffffff16815260200182815260200192505050602060405180830381600087803b158015611b8f57600080fd5b505af1158015611ba3573d6000803e3d6000fd5b505050506040513d6020811015611bb957600080fd5b8101908080519060200190929190505050505b8080600101915050611a36565b5042600b81905550505050505050565b600062278d004201905090565b611bfe6122eb565b73ffffffffffffffffffffffffffffffffffffffff1660008054906101000a900473ffffffffffffffffffffffffffffffffffffffff1673ffffffffffffffffffffffffffffffffffffffff1614611cbe576040517f08c379a00000000000000000000000000000000000000000000000000000000081526004018080602001828103825260208152602001807f4f776e61626c653a2063616c6c6572206973206e6f7420746865206f776e657281525060200191505060405180910390fd5b8060028190555050565b60608060035467ffffffffffffffff81118015611ce457600080fd5b50604051908082528060200260200182016040528015611d135781602001602082028036833780820191505090505b5090506000805b600580549050811015611e3d57600160ff166006600060058481548110611d3d57fe5b9060005260206000200160009054906101000a900473ffffffffffffffffffffffffffffffffffffffff1673ffffffffffffffffffffffffffffffffffffffff1673ffffffffffffffffffffffffffffffffffffffff168152602001908152602001600020541415611e305760058181548110611db657fe5b9060005260206000200160009054906101000a900473ffffffffffffffffffffffffffffffffffffffff16838381518110611ded57fe5b602002602001019073ffffffffffffffffffffffffffffffffffffffff16908173ffffffffffffffffffffffffffffffffffffffff168152505081806001019250505b8080600101915050611d1a565b50819250505090565b611e4e6122eb565b73ffffffffffffffffffffffffffffffffffffffff1660008054906101000a900473ffffffffffffffffffffffffffffffffffffffff1673ffffffffffffffffffffffffffffffffffffffff1614611f0e576040517f08c379a00000000000000000000000000000000000000000000000000000000081526004018080602001828103825260208152602001807f4f776e61626c653a2063616c6c6572206973206e6f7420746865206f776e657281525060200191505060405180910390fd5b600073ffffffffffffffffffffffffffffffffffffffff168173ffffffffffffffffffffffffffffffffffffffff161415611f94576040517f08c379a00000000000000000000000000000000000000000000000000000000081526004018080602001828103825260268152602001806125276026913960400191505060405180910390fd5b8073ffffffffffffffffffffffffffffffffffffffff1660008054906101000a900473ffffffffffffffffffffffffffffffffffffffff1673ffffffffffffffffffffffffffffffffffffffff167f8be0079c531659141344cd1fd0a4f28419497f9722a3daafe3b4186f6b6457e060405160405180910390a3806000806101000a81548173ffffffffffffffffffffffffffffffffffffffff021916908373ffffffffffffffffffffffffffffffffffffffff16021790555050565b60045481565b818073ffffffffffffffffffffffffffffffffffffffff163373ffffffffffffffffffffffffffffffffffffffff161480612096575061209561084d565b5b612108576040517f08c379a000000000000000000000000000000000000000000000000000000000815260040180806020018281038252601d8152602001807f506c6561736520706179204249524420746f20426972644f7261636c6500000081525060200191505060405180910390fd5b60016040518060a0016040528060045481526020018573ffffffffffffffffffffffffffffffffffffffff168152602001848152602001600081526020016000151581525090806001815401808255809150506001900390600052602060002090600702016000909190919091506000820151816000015560208201518160010160006101000a81548173ffffffffffffffffffffffffffffffffffffffff021916908373ffffffffffffffffffffffffffffffffffffffff16021790555060408201518160020190805190602001906121e3929190612489565b506060820151816003015560808201518160040160006101000a81548160ff02191690831515021790555050507f28ac703d033e970fd29eac4b6228bfb41686470bcba7bcc0b5a8dbb773a5c55d6004548484604051808481526020018373ffffffffffffffffffffffffffffffffffffffff16815260200180602001828103825283818151815260200191508051906020019080838360005b8381101561229857808201518184015260208101905061227d565b50505050905090810190601f1680156122c55780820380516001836020036101000a031916815260200191505b5094505050505060405180910390a1600460008154809291906001019190505550505050565b600033905090565b6000808314156123065760009050612373565b600082840290508284828161231757fe5b041461236e576040517f08c379a000000000000000000000000000000000000000000000000000000000815260040180806020018281038252602181526020018061259c6021913960400191505060405180910390fd5b809150505b92915050565b60006123bb83836040518060400160405280601a81526020017f536166654d6174683a206469766973696f6e206279207a65726f0000000000008152506123c3565b905092915050565b6000808311829061246f576040517f08c379a00000000000000000000000000000000000000000000000000000000081526004018080602001828103825283818151815260200191508051906020019080838360005b83811015612434578082015181840152602081019050612419565b50505050905090810190601f1680156124615780820380516001836020036101000a031916815260200191505b509250505060405180910390fd5b50600083858161247b57fe5b049050809150509392505050565b828054600181600116156101000203166002900490600052602060002090601f016020900481019282601f106124ca57805160ff19168380011785556124f8565b828001600101855582156124f8579182015b828111156124f75782518255916020019190600101906124dc565b5b5090506125059190612509565b5090565b5b8082111561252257600081600090555060010161250a565b509056fe4f776e61626c653a206e6577206f776e657220697320746865207a65726f20616464726573734572726f723a20596f7520617265206e6f7420616c6c6f77656420746f20766f74652e596f752063616e2063616c6c207265776172642070726f766964657273206f6e636520696e20323420687273536166654d6174683a206d756c7469706c69636174696f6e206f766572666c6f774572726f723a20436f6e73656e73757320697320636f6d706c65746520736f20796f752063616e206e6f7420766f74652ea26469706673582212200a87dfed2a46c17e224934651ea68e264fdcd251d75bb9c6eefca02a76d664cf64736f6c634300060c0033",
  "immutableReferences": {},
  "source": "pragma solidity 0.6.12;\n\n/**\nBird On-chain Oracle to confirm rating with 50% consensus before update using the off-chain API https://www.bird.money/docs\n*/\n\n//  2020 Bird Money\n// SPDX-License-Identifier: MIT\nimport \"@openzeppelin/contracts/token/ERC20/IERC20.sol\";\nimport \"@openzeppelin/contracts/access/Ownable.sol\";\nimport \"@openzeppelin/contracts/math/SafeMath.sol\";\n\ncontract BirdOracle is Ownable {\n    using SafeMath for uint256;\n\n    BirdRequest[] public onChainRequests; //keep track of list of on-chain\n\n    uint256 public minConsensus = 2; //minimum votes on an answer before confirmation\n    uint256 public birdNest = 0; // birds in nest count i.e total trusted providers\n    uint256 public trackId = 0; //current request id\n\n    address[] public providers; //offchain oracle nodes\n    mapping(address => uint256) statusOf; //offchain data provider address => TRUSTED or NOT\n\n    //status of providers with respect to all requests\n    uint8 constant NOT_TRUSTED = 0;\n    uint8 constant TRUSTED = 1;\n    uint8 constant WAS_TRUSTED = 2;\n\n    //status of with respect to individual request\n    uint8 constant NOT_VOTED = 0;\n    uint8 constant VOTED = 2;\n\n    /**\n     * Bird Standard API Request\n     * id: \"1\"\n     * ethAddress: address(0xcF01971DB0CAB2CBeE4A8C21BB7638aC1FA1c38c)\n     * key: \"bird_rating\"\n     * value: 400000000000000000   // 4.0\n     * resolved: true / false\n     * votesOf: 000000010000=> 2  (specific answer => number of votes of that answer)\n     * statusOf: 0xcf021.. => VOTED\n     */\n\n    struct BirdRequest {\n        uint256 id;\n        address ethAddress;\n        string key;\n        uint256 value;\n        bool resolved;\n        mapping(uint256 => uint256) votesOf; //specific answer => number of votes of that answer\n        mapping(address => uint256) statusOf; //offchain data provider address => VOTED or NOT\n    }\n\n    mapping(address => uint256) private ratingOf; //saved ratings of eth addresses after consensus\n\n    // Bird Standard API Request Off-Chain-Request from outside the blockchain\n    event OffChainRequest(uint256 id, address ethAddress, string key);\n\n    // To call when there is consensus on final result\n    event UpdatedRequest(\n        uint256 id,\n        address ethAddress,\n        string key,\n        uint256 value\n    );\n\n    event ProviderAdded(address provider);\n    event ProviderRemoved(address provider);\n\n    modifier paymentApproved(address _ethAddressToQuery) {\n        require(\n            msg.sender == _ethAddressToQuery || isApproved(),\n            \"Please pay BIRD to BirdOracle\"\n        );\n        _;\n    }\n\n    constructor(address _birdTokenAddr) public {\n        birdToken = IERC20(_birdTokenAddr);\n    }\n\n    function addProvider(address _provider) public onlyOwner {\n        require(statusOf[_provider] != TRUSTED, \"Provider is already added.\");\n\n        if (statusOf[_provider] == NOT_TRUSTED) providers.push(_provider);\n        statusOf[_provider] = TRUSTED;\n        ++birdNest;\n\n        emit ProviderAdded(_provider);\n    }\n\n    function removeProvider(address _provider) public onlyOwner {\n        require(statusOf[_provider] == TRUSTED, \"Provider is already removed.\");\n\n        statusOf[_provider] = WAS_TRUSTED;\n        --birdNest;\n\n        emit ProviderRemoved(_provider);\n    }\n\n    function newChainRequest(address _ethAddress, string memory _key)\n        public\n        paymentApproved(_ethAddress)\n    {\n        onChainRequests.push(\n            BirdRequest({\n                id: trackId,\n                ethAddress: _ethAddress,\n                key: _key,\n                value: 0, // if resolved is true then read value\n                resolved: false // if resolved is false then value do not matter\n            })\n        );\n\n        //Off-Chain event trigger\n        emit OffChainRequest(trackId, _ethAddress, _key);\n\n        //update total number of requests\n        trackId++;\n    }\n\n    //called by the Off-Chain oracle to record its answer\n    function updatedChainRequest(uint256 _id, uint256 _response) public {\n        BirdRequest storage req = onChainRequests[_id];\n\n        require(\n            req.resolved == false,\n            \"Error: Consensus is complete so you can not vote.\"\n        );\n        require(\n            statusOf[msg.sender] == TRUSTED,\n            \"Error: You are not allowed to vote.\"\n        );\n\n        require(\n            req.statusOf[msg.sender] == NOT_VOTED,\n            \"Error: You have already voted.\"\n        );\n\n        req.statusOf[msg.sender] = VOTED;\n        uint256 thisAnswerVotes = ++req.votesOf[_response];\n\n        if (thisAnswerVotes >= minConsensus) {\n            req.resolved = true;\n            req.value = _response;\n            ratingOf[req.ethAddress] = _response;\n            emit UpdatedRequest(req.id, req.ethAddress, req.key, req.value);\n        }\n    }\n\n    function getRatingByAddress(address _ethAddress)\n        public\n        view\n        paymentApproved(_ethAddress)\n        returns (uint256)\n    {\n        return ratingOf[_ethAddress];\n    }\n\n    function getRating() public view returns (uint256) {\n        return ratingOf[msg.sender];\n    }\n\n    //get trusted providers\n    function getProviders() public view returns (address[] memory) {\n        address[] memory trustedProviders = new address[](birdNest);\n        uint256 t_i = 0;\n        for (uint256 i = 0; i < providers.length; i++) {\n            if (statusOf[providers[i]] == TRUSTED) {\n                trustedProviders[t_i] = providers[i];\n                t_i++;\n            }\n        }\n        return trustedProviders;\n    }\n\n    IERC20 public birdToken;\n\n    uint256 public priceToAccessOracle = 1 * 1e18; // rate of 30 days to access data is 1 BIRD\n    mapping(address => uint256) public dueDateOf; // person/contract address => due date to pay for reading ratings\n\n    //send payment to oracle to get facility to create requests and read ratings\n    function sendPayment() public {\n        address buyer = msg.sender;\n        birdToken.transferFrom(buyer, address(this), priceToAccessOracle); // charge money from sender if he wants to access our oracle\n\n        uint256 dueDate = dueDateOf[buyer];\n\n        if (now < dueDate) {\n            dueDateOf[buyer] = dueDate + 30 days;\n        } else {\n            dueDateOf[buyer] = now + 30 days;\n        }\n    }\n\n    uint256 lastTimeRewarded = 0;\n\n    function rewardProviders() public {\n        //rewardProviders can be called once in a day\n        uint256 timeAfterRewarded = now - lastTimeRewarded;\n        require(\n            timeAfterRewarded > 24 hours,\n            \"You can call reward providers once in 24 hrs\"\n        );\n\n        //give 50% BIRD in this contract to owner and 50% to providers\n        uint256 rewardToOwnerPercentage = 50; // 50% reward to owner and rest money to providers\n\n        uint256 balance = birdToken.balanceOf(address(this));\n        uint256 rewardToOwner = balance.mul(rewardToOwnerPercentage).div(100);\n        uint256 rewardToProviders = balance - rewardToOwner;\n        uint256 rewardToEachProvider = rewardToProviders.div(birdNest);\n\n        birdToken.transfer(owner(), rewardToOwner);\n\n        for (uint256 i = 0; i < providers.length; i++)\n            if (statusOf[providers[i]] == TRUSTED)\n                birdToken.transfer(providers[i], rewardToEachProvider);\n\n        lastTimeRewarded = now;\n    }\n\n    function isApproved(address _addr) public view returns (bool) {\n        return now < dueDateOf[_addr];\n    }\n\n    function isApproved() public view returns (bool) {\n        return now < dueDateOf[msg.sender];\n    }\n\n    function setMinConsensus(uint256 _minConsensus) public onlyOwner {\n        minConsensus = _minConsensus;\n    }\n\n    function time() public view returns (uint256) {\n        return now;\n    }\n\n    function time1() public view returns (uint256) {\n        return 30 days;\n    }\n\n    function time2() public view returns (uint256) {\n        return now + 30 days;\n    }\n}\n",
  "sourcePath": "/home/muneeb/work/bird.money/bird-contract/contracts/BirdOracle.sol",
  "compiler": {
    "name": "solc",
    "version": "0.6.12+commit.27d51765.Emscripten.clang"
  },
  "schemaVersion": "3.3.3",
  "updatedAt": "2021-03-12T13:43:41.703Z",
  "networkType": "ethereum",
  "devdoc": {
    "kind": "dev",
    "methods": {
      "owner()": {
        "details": "Returns the address of the current owner."
      },
      "renounceOwnership()": {
        "details": "Leaves the contract without owner. It will not be possible to call `onlyOwner` functions anymore. Can only be called by the current owner. NOTE: Renouncing ownership will leave the contract without an owner, thereby removing any functionality that is only available to the owner."
      },
      "transferOwnership(address)": {
        "details": "Transfers ownership of the contract to a new account (`newOwner`). Can only be called by the current owner."
      }
    },
    "version": 1
  },
  "userdoc": {
    "kind": "user",
    "methods": {},
    "version": 1
  }
}