{
  "contractName": "BirdOracle",
  "abi": [
    {
      "inputs": [
        {
          "internalType": "contract IERC20",
          "name": "_rewardToken",
          "type": "address"
        }
      ],
      "stateMutability": "nonpayable",
      "type": "constructor"
    },
    {
      "anonymous": false,
      "inputs": [
        {
          "indexed": false,
          "internalType": "uint256",
          "name": "id",
          "type": "uint256"
        },
        {
          "indexed": false,
          "internalType": "address",
          "name": "ethAddress",
          "type": "address"
        },
        {
          "indexed": false,
          "internalType": "string",
          "name": "key",
          "type": "string"
        }
      ],
      "name": "OffChainRequest",
      "type": "event"
    },
    {
      "anonymous": false,
      "inputs": [
        {
          "indexed": true,
          "internalType": "address",
          "name": "previousOwner",
          "type": "address"
        },
        {
          "indexed": true,
          "internalType": "address",
          "name": "newOwner",
          "type": "address"
        }
      ],
      "name": "OwnershipTransferred",
      "type": "event"
    },
    {
      "anonymous": false,
      "inputs": [
        {
          "indexed": false,
          "internalType": "address",
          "name": "provider",
          "type": "address"
        }
      ],
      "name": "ProviderAdded",
      "type": "event"
    },
    {
      "anonymous": false,
      "inputs": [
        {
          "indexed": false,
          "internalType": "address",
          "name": "provider",
          "type": "address"
        }
      ],
      "name": "ProviderRemoved",
      "type": "event"
    },
    {
      "anonymous": false,
      "inputs": [
        {
          "indexed": false,
          "internalType": "uint256",
          "name": "id",
          "type": "uint256"
        },
        {
          "indexed": false,
          "internalType": "address",
          "name": "ethAddress",
          "type": "address"
        },
        {
          "indexed": false,
          "internalType": "string",
          "name": "key",
          "type": "string"
        },
        {
          "indexed": false,
          "internalType": "uint256",
          "name": "value",
          "type": "uint256"
        }
      ],
      "name": "UpdatedRequest",
      "type": "event"
    },
    {
      "inputs": [],
      "name": "birdNest",
      "outputs": [
        {
          "internalType": "uint256",
          "name": "",
          "type": "uint256"
        }
      ],
      "stateMutability": "view",
      "type": "function"
    },
    {
      "inputs": [],
      "name": "minConsensus",
      "outputs": [
        {
          "internalType": "uint256",
          "name": "",
          "type": "uint256"
        }
      ],
      "stateMutability": "view",
      "type": "function"
    },
    {
      "inputs": [
        {
          "internalType": "uint256",
          "name": "",
          "type": "uint256"
        }
      ],
      "name": "onChainRequests",
      "outputs": [
        {
          "internalType": "uint256",
          "name": "id",
          "type": "uint256"
        },
        {
          "internalType": "address",
          "name": "ethAddress",
          "type": "address"
        },
        {
          "internalType": "string",
          "name": "key",
          "type": "string"
        },
        {
          "internalType": "uint256",
          "name": "value",
          "type": "uint256"
        },
        {
          "internalType": "bool",
          "name": "resolved",
          "type": "bool"
        }
      ],
      "stateMutability": "view",
      "type": "function"
    },
    {
      "inputs": [],
      "name": "owner",
      "outputs": [
        {
          "internalType": "address",
          "name": "",
          "type": "address"
        }
      ],
      "stateMutability": "view",
      "type": "function"
    },
    {
      "inputs": [
        {
          "internalType": "uint256",
          "name": "",
          "type": "uint256"
        }
      ],
      "name": "providers",
      "outputs": [
        {
          "internalType": "address",
          "name": "",
          "type": "address"
        }
      ],
      "stateMutability": "view",
      "type": "function"
    },
    {
      "inputs": [],
      "name": "renounceOwnership",
      "outputs": [],
      "stateMutability": "nonpayable",
      "type": "function"
    },
    {
      "inputs": [],
      "name": "rewardToken",
      "outputs": [
        {
          "internalType": "contract IERC20",
          "name": "",
          "type": "address"
        }
      ],
      "stateMutability": "view",
      "type": "function"
    },
    {
      "inputs": [],
      "name": "trackId",
      "outputs": [
        {
          "internalType": "uint256",
          "name": "",
          "type": "uint256"
        }
      ],
      "stateMutability": "view",
      "type": "function"
    },
    {
      "inputs": [
        {
          "internalType": "address",
          "name": "newOwner",
          "type": "address"
        }
      ],
      "name": "transferOwnership",
      "outputs": [],
      "stateMutability": "nonpayable",
      "type": "function"
    },
    {
      "inputs": [
        {
          "internalType": "address",
          "name": "_provider",
          "type": "address"
        }
      ],
      "name": "addProvider",
      "outputs": [],
      "stateMutability": "nonpayable",
      "type": "function"
    },
    {
      "inputs": [
        {
          "internalType": "address",
          "name": "_provider",
          "type": "address"
        }
      ],
      "name": "removeProvider",
      "outputs": [],
      "stateMutability": "nonpayable",
      "type": "function"
    },
    {
      "inputs": [
        {
          "internalType": "address",
          "name": "_ethAddress",
          "type": "address"
        },
        {
          "internalType": "string",
          "name": "_key",
          "type": "string"
        }
      ],
      "name": "newChainRequest",
      "outputs": [],
      "stateMutability": "nonpayable",
      "type": "function"
    },
    {
      "inputs": [
        {
          "internalType": "uint256",
          "name": "_id",
          "type": "uint256"
        },
        {
          "internalType": "uint256",
          "name": "_response",
          "type": "uint256"
        }
      ],
      "name": "updatedChainRequest",
      "outputs": [],
      "stateMutability": "nonpayable",
      "type": "function"
    },
    {
      "inputs": [
        {
          "internalType": "address",
          "name": "_user",
          "type": "address"
        }
      ],
      "name": "getRatingByAddress",
      "outputs": [
        {
          "internalType": "uint256",
          "name": "",
          "type": "uint256"
        }
      ],
      "stateMutability": "view",
      "type": "function"
    },
    {
      "inputs": [],
      "name": "getRating",
      "outputs": [
        {
          "internalType": "uint256",
          "name": "",
          "type": "uint256"
        }
      ],
      "stateMutability": "view",
      "type": "function"
    },
    {
      "inputs": [],
      "name": "getProviders",
      "outputs": [
        {
          "internalType": "address[]",
          "name": "",
          "type": "address[]"
        }
      ],
      "stateMutability": "view",
      "type": "function"
    },
    {
      "inputs": [
        {
          "internalType": "uint256",
          "name": "_minConsensus",
          "type": "uint256"
        }
      ],
      "name": "setMinConsensus",
      "outputs": [],
      "stateMutability": "nonpayable",
      "type": "function"
    },
    {
      "inputs": [
        {
          "internalType": "contract IERC20",
          "name": "_rewardToken",
          "type": "address"
        }
      ],
      "name": "setRewardToken",
      "outputs": [],
      "stateMutability": "nonpayable",
      "type": "function"
    },
    {
      "inputs": [
        {
          "internalType": "uint256",
          "name": "_amount",
          "type": "uint256"
        }
      ],
      "name": "rewardProviders",
      "outputs": [],
      "stateMutability": "nonpayable",
      "type": "function"
    },
    {
      "inputs": [
        {
          "internalType": "uint256",
          "name": "_amount",
          "type": "uint256"
        }
      ],
      "name": "depositRewardTokens",
      "outputs": [],
      "stateMutability": "nonpayable",
      "type": "function"
    },
    {
      "inputs": [
        {
          "internalType": "uint256",
          "name": "_amount",
          "type": "uint256"
        }
      ],
      "name": "withdrawRewardTokens",
      "outputs": [],
      "stateMutability": "nonpayable",
      "type": "function"
    }
  ],
  "bytecode": "0x6080604052600280556000600355600060045534801561001e57600080fd5b5060405161232f38038061232f8339818101604052602081101561004157600080fd5b8101908080519060200190929190505050600061006261014760201b60201c565b9050806000806101000a81548173ffffffffffffffffffffffffffffffffffffffff021916908373ffffffffffffffffffffffffffffffffffffffff1602179055508073ffffffffffffffffffffffffffffffffffffffff16600073ffffffffffffffffffffffffffffffffffffffff167f8be0079c531659141344cd1fd0a4f28419497f9722a3daafe3b4186f6b6457e060405160405180910390a35080600860006101000a81548173ffffffffffffffffffffffffffffffffffffffff021916908373ffffffffffffffffffffffffffffffffffffffff1602179055505061014f565b600033905090565b6121d18061015e6000396000f3fe608060405234801561001057600080fd5b50600436106101375760003560e01c8063955b4315116100b8578063d8b7b0f01161007c578063d8b7b0f0146104ed578063edc922a91461051b578063f2fde38b1461057a578063f7c618c1146105be578063fbf40624146105f2578063fd5fa14e1461061057610137565b8063955b4315146103e357806398189b1b1461043b57806398ea323014610469578063a137a25014610487578063cb43b2dd146104bf57610137565b8063715018a6116100ff578063715018a61461024257806376c372311461024c5780638a355a57146103275780638aee81271461036b5780638da5cb5b146103af57610137565b806305cf8d5d1461013c57806316c621e01461015a57806346e2577a146101885780634992d23e146101cc57806350f3fc81146101ea575b600080fd5b6101446106eb565b6040518082815260200191505060405180910390f35b6101866004803603602081101561017057600080fd5b8101908080359060200190929190505050610732565b005b6101ca6004803603602081101561019e57600080fd5b81019080803573ffffffffffffffffffffffffffffffffffffffff1690602001909291905050506108d1565b005b6101d4610b90565b6040518082815260200191505060405180910390f35b6102166004803603602081101561020057600080fd5b8101908080359060200190929190505050610b96565b604051808273ffffffffffffffffffffffffffffffffffffffff16815260200191505060405180910390f35b61024a610bd2565b005b6102786004803603602081101561026257600080fd5b8101908080359060200190929190505050610d3f565b604051808681526020018573ffffffffffffffffffffffffffffffffffffffff168152602001806020018481526020018315158152602001828103825285818151815260200191508051906020019080838360005b838110156102e85780820151818401526020810190506102cd565b50505050905090810190601f1680156103155780820380516001836020036101000a031916815260200191505b50965050505050505060405180910390f35b6103696004803603602081101561033d57600080fd5b81019080803573ffffffffffffffffffffffffffffffffffffffff169060200190929190505050610e47565b005b6103ad6004803603602081101561038157600080fd5b81019080803573ffffffffffffffffffffffffffffffffffffffff169060200190929190505050611057565b005b6103b761114a565b604051808273ffffffffffffffffffffffffffffffffffffffff16815260200191505060405180910390f35b610425600480360360208110156103f957600080fd5b81019080803573ffffffffffffffffffffffffffffffffffffffff169060200190929190505050611173565b6040518082815260200191505060405180910390f35b6104676004803603602081101561045157600080fd5b81019080803590602001909291905050506111bc565b005b61047161142f565b6040518082815260200191505060405180910390f35b6104bd6004803603604081101561049d57600080fd5b810190808035906020019092919080359060200190929190505050611435565b005b6104eb600480360360208110156104d557600080fd5b810190808035906020019092919050505061183b565b005b6105196004803603602081101561050357600080fd5b81019080803590602001909291905050506119bc565b005b610523611a75565b6040518080602001828103825283818151815260200191508051906020019060200280838360005b8381101561056657808201518184015260208101905061054b565b505050509050019250505060405180910390f35b6105bc6004803603602081101561059057600080fd5b81019080803573ffffffffffffffffffffffffffffffffffffffff169060200190929190505050611bf3565b005b6105c6611de5565b604051808273ffffffffffffffffffffffffffffffffffffffff16815260200191505060405180910390f35b6105fa611e0b565b6040518082815260200191505060405180910390f35b6106e96004803603604081101561062657600080fd5b81019080803573ffffffffffffffffffffffffffffffffffffffff1690602001909291908035906020019064010000000081111561066357600080fd5b82018360208201111561067557600080fd5b8035906020019184600183028401116401000000008311171561069757600080fd5b91908080601f016020809104026020016040519081016040528093929190818152602001838380828437600081840152601f19601f820116905080830192505050505050509192919290505050611e11565b005b6000600760003373ffffffffffffffffffffffffffffffffffffffff1673ffffffffffffffffffffffffffffffffffffffff16815260200190815260200160002054905090565b61073a611ff3565b73ffffffffffffffffffffffffffffffffffffffff1661075861114a565b73ffffffffffffffffffffffffffffffffffffffff16146107e1576040517f08c379a00000000000000000000000000000000000000000000000000000000081526004018080602001828103825260208152602001807f4f776e61626c653a2063616c6c6572206973206e6f7420746865206f776e657281525060200191505060405180910390fd5b600860009054906101000a900473ffffffffffffffffffffffffffffffffffffffff1673ffffffffffffffffffffffffffffffffffffffff166323b872dd3330846040518463ffffffff1660e01b8152600401808473ffffffffffffffffffffffffffffffffffffffff1681526020018373ffffffffffffffffffffffffffffffffffffffff1681526020018281526020019350505050602060405180830381600087803b15801561089257600080fd5b505af11580156108a6573d6000803e3d6000fd5b505050506040513d60208110156108bc57600080fd5b81019080805190602001909291905050505050565b6108d9611ff3565b73ffffffffffffffffffffffffffffffffffffffff166108f761114a565b73ffffffffffffffffffffffffffffffffffffffff1614610980576040517f08c379a00000000000000000000000000000000000000000000000000000000081526004018080602001828103825260208152602001807f4f776e61626c653a2063616c6c6572206973206e6f7420746865206f776e657281525060200191505060405180910390fd5b600160ff16600660008373ffffffffffffffffffffffffffffffffffffffff1673ffffffffffffffffffffffffffffffffffffffff168152602001908152602001600020541415610a39576040517f08c379a000000000000000000000000000000000000000000000000000000000815260040180806020018281038252601a8152602001807f50726f766964657220697320616c72656164792061646465642e00000000000081525060200191505060405180910390fd5b600060ff16600660008373ffffffffffffffffffffffffffffffffffffffff1673ffffffffffffffffffffffffffffffffffffffff168152602001908152602001600020541415610ae8576005819080600181540180825580915050600190039060005260206000200160009091909190916101000a81548173ffffffffffffffffffffffffffffffffffffffff021916908373ffffffffffffffffffffffffffffffffffffffff1602179055505b600160ff16600660008373ffffffffffffffffffffffffffffffffffffffff1673ffffffffffffffffffffffffffffffffffffffff16815260200190815260200160002081905550600360008154600101919050819055507fae9c2c6481964847714ce58f65a7f6dcc41d0d8394449bacdf161b5920c4744a81604051808273ffffffffffffffffffffffffffffffffffffffff16815260200191505060405180910390a150565b60025481565b60058181548110610ba357fe5b906000526020600020016000915054906101000a900473ffffffffffffffffffffffffffffffffffffffff1681565b610bda611ff3565b73ffffffffffffffffffffffffffffffffffffffff16610bf861114a565b73ffffffffffffffffffffffffffffffffffffffff1614610c81576040517f08c379a00000000000000000000000000000000000000000000000000000000081526004018080602001828103825260208152602001807f4f776e61626c653a2063616c6c6572206973206e6f7420746865206f776e657281525060200191505060405180910390fd5b600073ffffffffffffffffffffffffffffffffffffffff1660008054906101000a900473ffffffffffffffffffffffffffffffffffffffff1673ffffffffffffffffffffffffffffffffffffffff167f8be0079c531659141344cd1fd0a4f28419497f9722a3daafe3b4186f6b6457e060405160405180910390a360008060006101000a81548173ffffffffffffffffffffffffffffffffffffffff021916908373ffffffffffffffffffffffffffffffffffffffff160217905550565b60018181548110610d4c57fe5b90600052602060002090600702016000915090508060000154908060010160009054906101000a900473ffffffffffffffffffffffffffffffffffffffff1690806002018054600181600116156101000203166002900480601f016020809104026020016040519081016040528092919081815260200182805460018160011615610100020316600290048015610e245780601f10610df957610100808354040283529160200191610e24565b820191906000526020600020905b815481529060010190602001808311610e0757829003601f168201915b5050505050908060030154908060040160009054906101000a900460ff16905085565b610e4f611ff3565b73ffffffffffffffffffffffffffffffffffffffff16610e6d61114a565b73ffffffffffffffffffffffffffffffffffffffff1614610ef6576040517f08c379a00000000000000000000000000000000000000000000000000000000081526004018080602001828103825260208152602001807f4f776e61626c653a2063616c6c6572206973206e6f7420746865206f776e657281525060200191505060405180910390fd5b600160ff16600660008373ffffffffffffffffffffffffffffffffffffffff1673ffffffffffffffffffffffffffffffffffffffff1681526020019081526020016000205414610fae576040517f08c379a000000000000000000000000000000000000000000000000000000000815260040180806020018281038252601c8152602001807f50726f766964657220697320616c72656164792072656d6f7665642e0000000081525060200191505060405180910390fd5b600260ff16600660008373ffffffffffffffffffffffffffffffffffffffff1673ffffffffffffffffffffffffffffffffffffffff1681526020019081526020016000208190555060036000815460019003919050819055507f1589f8555933761a3cff8aa925061be3b46e2dd43f621322ab611d300f62b1d981604051808273ffffffffffffffffffffffffffffffffffffffff16815260200191505060405180910390a150565b61105f611ff3565b73ffffffffffffffffffffffffffffffffffffffff1661107d61114a565b73ffffffffffffffffffffffffffffffffffffffff1614611106576040517f08c379a00000000000000000000000000000000000000000000000000000000081526004018080602001828103825260208152602001807f4f776e61626c653a2063616c6c6572206973206e6f7420746865206f776e657281525060200191505060405180910390fd5b80600860006101000a81548173ffffffffffffffffffffffffffffffffffffffff021916908373ffffffffffffffffffffffffffffffffffffffff16021790555050565b60008060009054906101000a900473ffffffffffffffffffffffffffffffffffffffff16905090565b6000600760008373ffffffffffffffffffffffffffffffffffffffff1673ffffffffffffffffffffffffffffffffffffffff168152602001908152602001600020549050919050565b6111c4611ff3565b73ffffffffffffffffffffffffffffffffffffffff166111e261114a565b73ffffffffffffffffffffffffffffffffffffffff161461126b576040517f08c379a00000000000000000000000000000000000000000000000000000000081526004018080602001828103825260208152602001807f4f776e61626c653a2063616c6c6572206973206e6f7420746865206f776e657281525060200191505060405180910390fd5b600061128260035483611ffb90919063ffffffff16565b905060005b60058054905081101561142a57600160ff1660066000600584815481106112aa57fe5b9060005260206000200160009054906101000a900473ffffffffffffffffffffffffffffffffffffffff1673ffffffffffffffffffffffffffffffffffffffff1673ffffffffffffffffffffffffffffffffffffffff16815260200190815260200160002054141561141d57600860009054906101000a900473ffffffffffffffffffffffffffffffffffffffff1673ffffffffffffffffffffffffffffffffffffffff1663a9059cbb6005838154811061136157fe5b9060005260206000200160009054906101000a900473ffffffffffffffffffffffffffffffffffffffff16846040518363ffffffff1660e01b8152600401808373ffffffffffffffffffffffffffffffffffffffff16815260200182815260200192505050602060405180830381600087803b1580156113e057600080fd5b505af11580156113f4573d6000803e3d6000fd5b505050506040513d602081101561140a57600080fd5b8101908080519060200190929190505050505b8080600101915050611287565b505050565b60035481565b60006001838154811061144457fe5b90600052602060002090600702019050600015158160040160009054906101000a900460ff161515146114c2576040517f08c379a000000000000000000000000000000000000000000000000000000000815260040180806020018281038252603181526020018061216b6031913960400191505060405180910390fd5b600160ff16600660003373ffffffffffffffffffffffffffffffffffffffff1673ffffffffffffffffffffffffffffffffffffffff168152602001908152602001600020541461155d576040517f08c379a00000000000000000000000000000000000000000000000000000000081526004018080602001828103825260238152602001806121486023913960400191505060405180910390fd5b600060ff168160060160003373ffffffffffffffffffffffffffffffffffffffff1673ffffffffffffffffffffffffffffffffffffffff1681526020019081526020016000205414611617576040517f08c379a000000000000000000000000000000000000000000000000000000000815260040180806020018281038252601e8152602001807f4572726f723a20596f75206861766520616c726561647920766f7465642e000081525060200191505060405180910390fd5b600260ff168160060160003373ffffffffffffffffffffffffffffffffffffffff1673ffffffffffffffffffffffffffffffffffffffff16815260200190815260200160002081905550600081600501600084815260200190815260200160002060008154600101919050819055905060025481106118355760018260040160006101000a81548160ff02191690831515021790555082826003018190555082600760008460010160009054906101000a900473ffffffffffffffffffffffffffffffffffffffff1673ffffffffffffffffffffffffffffffffffffffff1673ffffffffffffffffffffffffffffffffffffffff168152602001908152602001600020819055507f9531595c5c00a6c9f988db25ffcf14298458d0412319d740301087730421484e82600001548360010160009054906101000a900473ffffffffffffffffffffffffffffffffffffffff16846002018560030154604051808581526020018473ffffffffffffffffffffffffffffffffffffffff168152602001806020018381526020018281038252848181546001816001161561010002031660029004815260200191508054600181600116156101000203166002900480156118235780601f106117f857610100808354040283529160200191611823565b820191906000526020600020905b81548152906001019060200180831161180657829003601f168201915b50509550505050505060405180910390a15b50505050565b611843611ff3565b73ffffffffffffffffffffffffffffffffffffffff1661186161114a565b73ffffffffffffffffffffffffffffffffffffffff16146118ea576040517f08c379a00000000000000000000000000000000000000000000000000000000081526004018080602001828103825260208152602001807f4f776e61626c653a2063616c6c6572206973206e6f7420746865206f776e657281525060200191505060405180910390fd5b600860009054906101000a900473ffffffffffffffffffffffffffffffffffffffff1673ffffffffffffffffffffffffffffffffffffffff1663a9059cbb33836040518363ffffffff1660e01b8152600401808373ffffffffffffffffffffffffffffffffffffffff16815260200182815260200192505050602060405180830381600087803b15801561197d57600080fd5b505af1158015611991573d6000803e3d6000fd5b505050506040513d60208110156119a757600080fd5b81019080805190602001909291905050505050565b6119c4611ff3565b73ffffffffffffffffffffffffffffffffffffffff166119e261114a565b73ffffffffffffffffffffffffffffffffffffffff1614611a6b576040517f08c379a00000000000000000000000000000000000000000000000000000000081526004018080602001828103825260208152602001807f4f776e61626c653a2063616c6c6572206973206e6f7420746865206f776e657281525060200191505060405180910390fd5b8060028190555050565b60608060035467ffffffffffffffff81118015611a9157600080fd5b50604051908082528060200260200182016040528015611ac05781602001602082028036833780820191505090505b5090506000805b600580549050811015611bea57600160ff166006600060058481548110611aea57fe5b9060005260206000200160009054906101000a900473ffffffffffffffffffffffffffffffffffffffff1673ffffffffffffffffffffffffffffffffffffffff1673ffffffffffffffffffffffffffffffffffffffff168152602001908152602001600020541415611bdd5760058181548110611b6357fe5b9060005260206000200160009054906101000a900473ffffffffffffffffffffffffffffffffffffffff16838381518110611b9a57fe5b602002602001019073ffffffffffffffffffffffffffffffffffffffff16908173ffffffffffffffffffffffffffffffffffffffff168152505081806001019250505b8080600101915050611ac7565b50819250505090565b611bfb611ff3565b73ffffffffffffffffffffffffffffffffffffffff16611c1961114a565b73ffffffffffffffffffffffffffffffffffffffff1614611ca2576040517f08c379a00000000000000000000000000000000000000000000000000000000081526004018080602001828103825260208152602001807f4f776e61626c653a2063616c6c6572206973206e6f7420746865206f776e657281525060200191505060405180910390fd5b600073ffffffffffffffffffffffffffffffffffffffff168173ffffffffffffffffffffffffffffffffffffffff161415611d28576040517f08c379a00000000000000000000000000000000000000000000000000000000081526004018080602001828103825260268152602001806121226026913960400191505060405180910390fd5b8073ffffffffffffffffffffffffffffffffffffffff1660008054906101000a900473ffffffffffffffffffffffffffffffffffffffff1673ffffffffffffffffffffffffffffffffffffffff167f8be0079c531659141344cd1fd0a4f28419497f9722a3daafe3b4186f6b6457e060405160405180910390a3806000806101000a81548173ffffffffffffffffffffffffffffffffffffffff021916908373ffffffffffffffffffffffffffffffffffffffff16021790555050565b600860009054906101000a900473ffffffffffffffffffffffffffffffffffffffff1681565b60045481565b60016040518060a0016040528060045481526020018473ffffffffffffffffffffffffffffffffffffffff168152602001838152602001600081526020016000151581525090806001815401808255809150506001900390600052602060002090600702016000909190919091506000820151816000015560208201518160010160006101000a81548173ffffffffffffffffffffffffffffffffffffffff021916908373ffffffffffffffffffffffffffffffffffffffff1602179055506040820151816002019080519060200190611eec929190612084565b506060820151816003015560808201518160040160006101000a81548160ff02191690831515021790555050507f28ac703d033e970fd29eac4b6228bfb41686470bcba7bcc0b5a8dbb773a5c55d6004548383604051808481526020018373ffffffffffffffffffffffffffffffffffffffff16815260200180602001828103825283818151815260200191508051906020019080838360005b83811015611fa1578082015181840152602081019050611f86565b50505050905090810190601f168015611fce5780820380516001836020036101000a031916815260200191505b5094505050505060405180910390a16004600081548092919060010191905055505050565b600033905090565b6000808211612072576040517f08c379a000000000000000000000000000000000000000000000000000000000815260040180806020018281038252601a8152602001807f536166654d6174683a206469766973696f6e206279207a65726f00000000000081525060200191505060405180910390fd5b81838161207b57fe5b04905092915050565b828054600181600116156101000203166002900490600052602060002090601f016020900481019282601f106120c557805160ff19168380011785556120f3565b828001600101855582156120f3579182015b828111156120f25782518255916020019190600101906120d7565b5b5090506121009190612104565b5090565b5b8082111561211d576000816000905550600101612105565b509056fe4f776e61626c653a206e6577206f776e657220697320746865207a65726f20616464726573734572726f723a20596f7520617265206e6f7420616c6c6f77656420746f20766f74652e4572726f723a20436f6e73656e73757320697320636f6d706c65746520736f20796f752063616e206e6f7420766f74652ea264697066735822122029c6803f305c5e065fc1cf399fdcc1fd5d8ef7d8db7875dcd4cc91ca79fa3d1e64736f6c634300060c0033",
  "immutableReferences": {},
  "source": "pragma solidity 0.6.12;\n\n/**\nBird On-chain Oracle to confirm rating with consensus before update using the off-chain API https://www.bird.money/docs\n*/\n\n//  2020 Bird Money\n// SPDX-License-Identifier: MIT\nimport \"@openzeppelin/contracts/token/ERC20/IERC20.sol\";\nimport \"@openzeppelin/contracts/access/Ownable.sol\";\nimport \"@openzeppelin/contracts/math/SafeMath.sol\";\n\ncontract BirdOracle is Ownable {\n    using SafeMath for uint256;\n\n    BirdRequest[] public onChainRequests; //keep track of list of on-chain\n\n    uint256 public minConsensus = 2; //minimum votes on an answer before confirmation\n    uint256 public birdNest = 0; // birds in nest count i.e total trusted providers\n    uint256 public trackId = 0; //current request id\n\n    address[] public providers; //offchain oracle nodes\n    mapping(address => uint256) statusOf; //offchain data provider address => TRUSTED or NOT\n\n    //status of providers with respect to all requests\n    uint8 constant NOT_TRUSTED = 0;\n    uint8 constant TRUSTED = 1;\n    uint8 constant WAS_TRUSTED = 2;\n\n    //status of with respect to individual request\n    uint8 constant NOT_VOTED = 0;\n    uint8 constant VOTED = 2;\n\n    /**\n     * Bird Standard API Request\n     * id: \"1\"\n     * ethAddress: address(0xcF01971DB0CAB2CBeE4A8C21BB7638aC1FA1c38c)\n     * key: \"bird_rating\"\n     * value: 400000000000000000   // 4.0\n     * resolved: true / false\n     * votesOf: 000000010000=> 2  (specific answer => number of votes of that answer)\n     * statusOf: 0xcf021.. => VOTED\n     */\n\n    struct BirdRequest {\n        uint256 id;\n        address ethAddress;\n        string key;\n        uint256 value;\n        bool resolved;\n        mapping(uint256 => uint256) votesOf; //specific answer => number of votes of that answer\n        mapping(address => uint256) statusOf; //offchain data provider address => VOTED or NOT\n    }\n\n    mapping(address => uint256) private ratingOf; //saved ratings of eth addresses after consensus\n\n    // Bird Standard API Request Off-Chain-Request from outside the blockchain\n    event OffChainRequest(uint256 id, address ethAddress, string key);\n\n    // To call when there is consensus on final result\n    event UpdatedRequest(\n        uint256 id,\n        address ethAddress,\n        string key,\n        uint256 value\n    );\n\n    event ProviderAdded(address provider);\n    event ProviderRemoved(address provider);\n\n    constructor(IERC20 _rewardToken) public {\n        rewardToken = _rewardToken;\n    }\n\n    function addProvider(address _provider) public onlyOwner {\n        require(statusOf[_provider] != TRUSTED, \"Provider is already added.\");\n\n        if (statusOf[_provider] == NOT_TRUSTED) providers.push(_provider);\n        statusOf[_provider] = TRUSTED;\n        ++birdNest;\n\n        emit ProviderAdded(_provider);\n    }\n\n    function removeProvider(address _provider) public onlyOwner {\n        require(statusOf[_provider] == TRUSTED, \"Provider is already removed.\");\n\n        statusOf[_provider] = WAS_TRUSTED;\n        --birdNest;\n\n        emit ProviderRemoved(_provider);\n    }\n\n    function newChainRequest(address _ethAddress, string memory _key) public {\n        onChainRequests.push(\n            BirdRequest({\n                id: trackId,\n                ethAddress: _ethAddress,\n                key: _key,\n                value: 0, // if resolved is true then read value\n                resolved: false // if resolved is false then value do not matter\n            })\n        );\n\n        //Off-Chain event trigger\n        emit OffChainRequest(trackId, _ethAddress, _key);\n\n        //update total number of requests\n        trackId++;\n    }\n\n    //called by the Off-Chain oracle to record its answer\n    function updatedChainRequest(uint256 _id, uint256 _response) public {\n        BirdRequest storage req = onChainRequests[_id];\n\n        require(\n            req.resolved == false,\n            \"Error: Consensus is complete so you can not vote.\"\n        );\n        require(\n            statusOf[msg.sender] == TRUSTED,\n            \"Error: You are not allowed to vote.\"\n        );\n\n        require(\n            req.statusOf[msg.sender] == NOT_VOTED,\n            \"Error: You have already voted.\"\n        );\n\n        req.statusOf[msg.sender] = VOTED;\n        uint256 thisAnswerVotes = ++req.votesOf[_response];\n\n        if (thisAnswerVotes >= minConsensus) {\n            req.resolved = true;\n            req.value = _response;\n            ratingOf[req.ethAddress] = _response;\n            emit UpdatedRequest(req.id, req.ethAddress, req.key, req.value);\n        }\n    }\n\n    function getRatingByAddress(address _user) public view returns (uint256) {\n        return ratingOf[_user];\n    }\n\n    function getRating() public view returns (uint256) {\n        return ratingOf[msg.sender];\n    }\n\n    //get trusted providers\n    function getProviders() public view returns (address[] memory) {\n        address[] memory trustedProviders = new address[](birdNest);\n        uint256 t_i = 0;\n        for (uint256 i = 0; i < providers.length; i++) {\n            if (statusOf[providers[i]] == TRUSTED) {\n                trustedProviders[t_i] = providers[i];\n                t_i++;\n            }\n        }\n        return trustedProviders;\n    }\n\n    //set minimum amount of answers needed to accept an answer\n    function setMinConsensus(uint256 _minConsensus) public onlyOwner {\n        minConsensus = _minConsensus;\n    }\n\n    IERC20 public rewardToken;\n\n    //change reward token\n    function setRewardToken(IERC20 _rewardToken) public onlyOwner {\n        rewardToken = _rewardToken;\n    }\n\n    //any amount admin gives. it is distributed to all node providers equally.\n    function rewardProviders(uint256 _amount) public onlyOwner {\n        uint256 rewardToEachProvider = _amount.div(birdNest);\n\n        for (uint256 i = 0; i < providers.length; i++)\n            if (statusOf[providers[i]] == TRUSTED)\n                rewardToken.transfer(providers[i], rewardToEachProvider);\n    }\n\n    //send tokens to contract. So that it can distributed to node providers.\n    function depositRewardTokens(uint256 _amount) public onlyOwner {\n        rewardToken.transferFrom(msg.sender, address(this), _amount);\n    }\n\n    //get tokens from contract back to owner\n    function withdrawRewardTokens(uint256 _amount) public onlyOwner {\n        rewardToken.transfer(msg.sender, _amount);\n    }\n}\n",
  "sourcePath": "/home/muneeb/work/Bird Money/bird-oracle-contract/contracts/BirdOracle.sol",
  "compiler": {
    "name": "solc",
    "version": "0.6.12+commit.27d51765.Emscripten.clang"
  },
  "schemaVersion": "3.3.3",
  "updatedAt": "2021-03-30T17:46:03.558Z",
  "devdoc": {
    "kind": "dev",
    "methods": {
      "owner()": {
        "details": "Returns the address of the current owner."
      },
      "renounceOwnership()": {
        "details": "Leaves the contract without owner. It will not be possible to call `onlyOwner` functions anymore. Can only be called by the current owner. NOTE: Renouncing ownership will leave the contract without an owner, thereby removing any functionality that is only available to the owner."
      },
      "transferOwnership(address)": {
        "details": "Transfers ownership of the contract to a new account (`newOwner`). Can only be called by the current owner."
      }
    },
    "version": 1
  },
  "userdoc": {
    "kind": "user",
    "methods": {},
    "version": 1
  }
}