{
  "contractName": "BirdOraclePayment",
  "abi": [
    {
      "constant": true,
      "inputs": [],
      "name": "aaa",
      "outputs": [
        {
          "internalType": "uint256",
          "name": "",
          "type": "uint256"
        }
      ],
      "payable": false,
      "stateMutability": "view",
      "type": "function"
    },
    {
      "constant": true,
      "inputs": [],
      "name": "isApproved",
      "outputs": [
        {
          "internalType": "bool",
          "name": "",
          "type": "bool"
        }
      ],
      "payable": false,
      "stateMutability": "pure",
      "type": "function"
    }
  ],
  "bytecode": "0x6080604052600a60005534801561001557600080fd5b5060b6806100246000396000f3fe6080604052348015600f57600080fd5b506004361060325760003560e01c806328f371aa146037578063937c0d0a146057575b600080fd5b603d6073565b604051808215151515815260200191505060405180910390f35b605d607b565b6040518082815260200191505060405180910390f35b600080905090565b6000548156fea265627a7a72315820c30285e2acbf275f5d14c6a4bfb91cca8a90afcf07dd75a1057a7ff73aee580364736f6c63430005100032",
  "source": "pragma solidity ^0.5.16;\n\n//slowly build this contract.\ncontract BirdOraclePayment {\n    uint256 public aaa = 10;\n\n    function isApproved() public pure returns (bool) {\n        //address _addr\n        return false;\n    }\n}\n",
  "sourcePath": "/home/muneeb/work/bird-contract/contracts/BirdOraclePayments.sol",
  "compiler": {
    "name": "solc",
    "version": "0.5.16+commit.9c3226ce.Emscripten.clang"
  },
  "schemaVersion": "3.3.3",
  "updatedAt": "2021-02-21T07:14:58.517Z",
  "devdoc": {
    "methods": {}
  },
  "userdoc": {
    "methods": {}
  }
}