{
  "contractName": "BirdOraclePayment",
  "abi": [
    {
      "inputs": [
        {
          "internalType": "address",
          "name": "birdTokenAddr",
          "type": "address"
        }
      ],
      "stateMutability": "nonpayable",
      "type": "constructor"
    },
    {
      "inputs": [],
      "name": "aaa",
      "outputs": [
        {
          "internalType": "uint256",
          "name": "",
          "type": "uint256"
        }
      ],
      "stateMutability": "view",
      "type": "function"
    },
    {
      "inputs": [],
      "name": "sendPayment",
      "outputs": [],
      "stateMutability": "nonpayable",
      "type": "function"
    },
    {
      "inputs": [
        {
          "internalType": "address",
          "name": "_addr",
          "type": "address"
        }
      ],
      "name": "isApproved",
      "outputs": [
        {
          "internalType": "bool",
          "name": "",
          "type": "bool"
        }
      ],
      "stateMutability": "view",
      "type": "function"
    }
  ],
  "bytecode": "0x6080604052600a600055670de0b6b3a764000060025534801561002157600080fd5b506040516103e13803806103e18339818101604052602081101561004457600080fd5b810190808051906020019092919050505080600160006101000a81548173ffffffffffffffffffffffffffffffffffffffff021916908373ffffffffffffffffffffffffffffffffffffffff1602179055505061033b806100a66000396000f3fe608060405234801561001057600080fd5b50600436106100415760003560e01c80636720ceb114610046578063673448dd14610050578063937c0d0a146100aa575b600080fd5b61004e6100c8565b005b6100926004803603602081101561006657600080fd5b81019080803573ffffffffffffffffffffffffffffffffffffffff1690602001909291905050506102b4565b60405180821515815260200191505060405180910390f35b6100b26102ff565b6040518082815260200191505060405180910390f35b6000339050600160009054906101000a900473ffffffffffffffffffffffffffffffffffffffff1673ffffffffffffffffffffffffffffffffffffffff166323b872dd82306002546040518463ffffffff1660e01b8152600401808473ffffffffffffffffffffffffffffffffffffffff1681526020018373ffffffffffffffffffffffffffffffffffffffff1681526020018281526020019350505050602060405180830381600087803b15801561018057600080fd5b505af1158015610194573d6000803e3d6000fd5b505050506040513d60208110156101aa57600080fd5b8101908080519060200190929190505050506000600360008373ffffffffffffffffffffffffffffffffffffffff1673ffffffffffffffffffffffffffffffffffffffff168152602001908152602001600020549050600062278d0042019050428211801561021857508082105b1561026857808201600360008573ffffffffffffffffffffffffffffffffffffffff1673ffffffffffffffffffffffffffffffffffffffff168152602001908152602001600020819055506102af565b804201600360008573ffffffffffffffffffffffffffffffffffffffff1673ffffffffffffffffffffffffffffffffffffffff168152602001908152602001600020819055505b505050565b6000600360008373ffffffffffffffffffffffffffffffffffffffff1673ffffffffffffffffffffffffffffffffffffffff1681526020019081526020016000205442109050919050565b6000548156fea2646970667358221220802da27cc17ba8cc9602ba81f27f6e9b8da922c8e413685d5b5b71b49f78efeb64736f6c634300060c0033",
  "immutableReferences": {},
  "source": "pragma solidity 0.6.12;\nimport \"./BirdToken.sol\";\n\n// SPDX-License-Identifier: MIT\n\n//slowly build this contract.\n//this contract takes payment from people and tells wheter a person has paid rent in current time.\ncontract BirdOraclePayment {\n    uint256 public aaa = 10;\n    BirdToken birdToken;\n    //standard fee per 10 days is 1 bird.\n    uint256 priceToAccessOracle = 1 * 1e18; //rate of 30 days to access data is 1 BIRD\n    mapping(address => uint256) dueDateOf; // who paid the money at whatis his due date. //handle case a person called\n\n    constructor(address birdTokenAddr) public {\n        birdToken = BirdToken(birdTokenAddr);\n    }\n\n    function sendPayment() public {\n        address buyer = msg.sender;\n        birdToken.transferFrom(buyer, address(this), priceToAccessOracle); // charge money from sender if he wants to access our oracle\n\n        uint256 dueDate = dueDateOf[buyer];\n        uint256 next30Days = now + 30 days;\n\n        //todoshould we make its function?\n        if (dueDate > now && dueDate < next30Days) {\n            dueDateOf[buyer] = dueDate + next30Days;\n        } else {\n            dueDateOf[buyer] = now + next30Days;\n        }\n    }\n\n    function isApproved(address _addr) public view returns (bool) {\n        return now < dueDateOf[_addr];\n    }\n}\n",
  "sourcePath": "/home/muneeb/work/bird-contract/contracts/BirdOraclePayment.sol",
  "compiler": {
    "name": "solc",
    "version": "0.6.12+commit.27d51765.Emscripten.clang"
  },
  "schemaVersion": "3.3.3",
  "updatedAt": "2021-02-23T15:37:39.974Z",
  "devdoc": {
    "kind": "dev",
    "methods": {},
    "version": 1
  },
  "userdoc": {
    "kind": "user",
    "methods": {},
    "version": 1
  }
}