{
  "contractName": "BirdOracle",
  "abi": [
    {
      "inputs": [
        {
          "internalType": "address",
          "name": "_birdTokenAddr",
          "type": "address"
        }
      ],
      "stateMutability": "nonpayable",
      "type": "constructor"
    },
    {
      "anonymous": false,
      "inputs": [
        {
          "indexed": false,
          "internalType": "uint256",
          "name": "id",
          "type": "uint256"
        },
        {
          "indexed": false,
          "internalType": "address",
          "name": "ethAddress",
          "type": "address"
        },
        {
          "indexed": false,
          "internalType": "string",
          "name": "key",
          "type": "string"
        }
      ],
      "name": "OffChainRequest",
      "type": "event"
    },
    {
      "anonymous": false,
      "inputs": [
        {
          "indexed": false,
          "internalType": "address",
          "name": "provider",
          "type": "address"
        }
      ],
      "name": "ProviderAdded",
      "type": "event"
    },
    {
      "anonymous": false,
      "inputs": [
        {
          "indexed": false,
          "internalType": "address",
          "name": "provider",
          "type": "address"
        }
      ],
      "name": "ProviderRemoved",
      "type": "event"
    },
    {
      "anonymous": false,
      "inputs": [
        {
          "indexed": false,
          "internalType": "uint256",
          "name": "id",
          "type": "uint256"
        },
        {
          "indexed": false,
          "internalType": "address",
          "name": "ethAddress",
          "type": "address"
        },
        {
          "indexed": false,
          "internalType": "string",
          "name": "key",
          "type": "string"
        },
        {
          "indexed": false,
          "internalType": "uint256",
          "name": "value",
          "type": "uint256"
        }
      ],
      "name": "UpdatedRequest",
      "type": "event"
    },
    {
      "inputs": [],
      "name": "birdNest",
      "outputs": [
        {
          "internalType": "uint256",
          "name": "",
          "type": "uint256"
        }
      ],
      "stateMutability": "view",
      "type": "function",
      "constant": true
    },
    {
      "inputs": [
        {
          "internalType": "address",
          "name": "",
          "type": "address"
        }
      ],
      "name": "dueDateOf",
      "outputs": [
        {
          "internalType": "uint256",
          "name": "",
          "type": "uint256"
        }
      ],
      "stateMutability": "view",
      "type": "function",
      "constant": true
    },
    {
      "inputs": [
        {
          "internalType": "address",
          "name": "",
          "type": "address"
        }
      ],
      "name": "loanOf",
      "outputs": [
        {
          "internalType": "uint256",
          "name": "",
          "type": "uint256"
        }
      ],
      "stateMutability": "view",
      "type": "function",
      "constant": true
    },
    {
      "inputs": [],
      "name": "minConsensusPercentage",
      "outputs": [
        {
          "internalType": "uint256",
          "name": "",
          "type": "uint256"
        }
      ],
      "stateMutability": "view",
      "type": "function",
      "constant": true
    },
    {
      "inputs": [
        {
          "internalType": "uint256",
          "name": "",
          "type": "uint256"
        }
      ],
      "name": "onChainRequests",
      "outputs": [
        {
          "internalType": "uint256",
          "name": "id",
          "type": "uint256"
        },
        {
          "internalType": "address",
          "name": "ethAddress",
          "type": "address"
        },
        {
          "internalType": "string",
          "name": "key",
          "type": "string"
        },
        {
          "internalType": "uint256",
          "name": "value",
          "type": "uint256"
        },
        {
          "internalType": "bool",
          "name": "resolved",
          "type": "bool"
        }
      ],
      "stateMutability": "view",
      "type": "function",
      "constant": true
    },
    {
      "inputs": [],
      "name": "owner",
      "outputs": [
        {
          "internalType": "address",
          "name": "",
          "type": "address"
        }
      ],
      "stateMutability": "view",
      "type": "function",
      "constant": true
    },
    {
      "inputs": [],
      "name": "priceToAccessOracle",
      "outputs": [
        {
          "internalType": "uint256",
          "name": "",
          "type": "uint256"
        }
      ],
      "stateMutability": "view",
      "type": "function",
      "constant": true
    },
    {
      "inputs": [
        {
          "internalType": "uint256",
          "name": "",
          "type": "uint256"
        }
      ],
      "name": "providers",
      "outputs": [
        {
          "internalType": "address",
          "name": "",
          "type": "address"
        }
      ],
      "stateMutability": "view",
      "type": "function",
      "constant": true
    },
    {
      "inputs": [],
      "name": "trackId",
      "outputs": [
        {
          "internalType": "uint256",
          "name": "",
          "type": "uint256"
        }
      ],
      "stateMutability": "view",
      "type": "function",
      "constant": true
    },
    {
      "inputs": [],
      "name": "getProviders",
      "outputs": [
        {
          "internalType": "address[]",
          "name": "",
          "type": "address[]"
        }
      ],
      "stateMutability": "view",
      "type": "function",
      "constant": true
    },
    {
      "inputs": [
        {
          "internalType": "address",
          "name": "_provider",
          "type": "address"
        }
      ],
      "name": "addProvider",
      "outputs": [],
      "stateMutability": "nonpayable",
      "type": "function"
    },
    {
      "inputs": [
        {
          "internalType": "address",
          "name": "_provider",
          "type": "address"
        }
      ],
      "name": "removeProvider",
      "outputs": [],
      "stateMutability": "nonpayable",
      "type": "function"
    },
    {
      "inputs": [
        {
          "internalType": "address",
          "name": "_ethAddress",
          "type": "address"
        },
        {
          "internalType": "string",
          "name": "_key",
          "type": "string"
        }
      ],
      "name": "newChainRequest",
      "outputs": [],
      "stateMutability": "nonpayable",
      "type": "function"
    },
    {
      "inputs": [
        {
          "internalType": "uint256",
          "name": "_id",
          "type": "uint256"
        },
        {
          "internalType": "uint256",
          "name": "_response",
          "type": "uint256"
        }
      ],
      "name": "updatedChainRequest",
      "outputs": [],
      "stateMutability": "nonpayable",
      "type": "function"
    },
    {
      "inputs": [
        {
          "internalType": "address",
          "name": "_ethAddress",
          "type": "address"
        }
      ],
      "name": "getRatingByAddress",
      "outputs": [
        {
          "internalType": "uint256",
          "name": "",
          "type": "uint256"
        }
      ],
      "stateMutability": "view",
      "type": "function",
      "constant": true
    },
    {
      "inputs": [],
      "name": "getRating",
      "outputs": [
        {
          "internalType": "uint256",
          "name": "",
          "type": "uint256"
        }
      ],
      "stateMutability": "view",
      "type": "function",
      "constant": true
    },
    {
      "inputs": [],
      "name": "sendPayment",
      "outputs": [],
      "stateMutability": "nonpayable",
      "type": "function"
    },
    {
      "inputs": [],
      "name": "rewardProviders",
      "outputs": [],
      "stateMutability": "nonpayable",
      "type": "function"
    },
    {
      "inputs": [
        {
          "internalType": "address",
          "name": "_addr",
          "type": "address"
        }
      ],
      "name": "isApproved",
      "outputs": [
        {
          "internalType": "bool",
          "name": "",
          "type": "bool"
        }
      ],
      "stateMutability": "view",
      "type": "function",
      "constant": true
    },
    {
      "inputs": [
        {
          "internalType": "uint256",
          "name": "requestedLoanInBird",
          "type": "uint256"
        }
      ],
      "name": "getLoan",
      "outputs": [],
      "stateMutability": "nonpayable",
      "type": "function"
    },
    {
      "inputs": [],
      "name": "returnLoan",
      "outputs": [],
      "stateMutability": "nonpayable",
      "type": "function"
    }
  ],
  "bytecode": "0x6080604052603260025560006003556000600455670de0b6b3a76400006009556000600b556064600d553480156200003657600080fd5b5060405162002a4838038062002a48833981810160405260208110156200005c57600080fd5b810190808051906020019092919050505033600160006101000a81548173ffffffffffffffffffffffffffffffffffffffff021916908373ffffffffffffffffffffffffffffffffffffffff16021790555080600860006101000a81548173ffffffffffffffffffffffffffffffffffffffff021916908373ffffffffffffffffffffffffffffffffffffffff160217905550620001147335fa8692eb10f87d17cd27fb5488598d33b023e56200016560201b60201c565b620001397358fd79d34edc6362f92c6799ee46945113a6ea916200016560201b60201c565b6200015e730e4338dfeda53bc35467a09da483410664d34e886200016560201b60201c565b506200043b565b600160009054906101000a900473ffffffffffffffffffffffffffffffffffffffff1673ffffffffffffffffffffffffffffffffffffffff163373ffffffffffffffffffffffffffffffffffffffff161462000229576040517f08c379a000000000000000000000000000000000000000000000000000000000815260040180806020018281038252601c8152602001807f4f776e65722063616e2063616c6c20746869732066756e6374696f6e0000000081525060200191505060405180910390fd5b600160ff16600560008373ffffffffffffffffffffffffffffffffffffffff1673ffffffffffffffffffffffffffffffffffffffff168152602001908152602001600020541415620002e3576040517f08c379a000000000000000000000000000000000000000000000000000000000815260040180806020018281038252601a8152602001807f50726f766964657220697320616c72656164792061646465642e00000000000081525060200191505060405180910390fd5b600060ff16600560008373ffffffffffffffffffffffffffffffffffffffff1673ffffffffffffffffffffffffffffffffffffffff16815260200190815260200160002054141562000393576006819080600181540180825580915050600190039060005260206000200160009091909190916101000a81548173ffffffffffffffffffffffffffffffffffffffff021916908373ffffffffffffffffffffffffffffffffffffffff1602179055505b600160ff16600560008373ffffffffffffffffffffffffffffffffffffffff1673ffffffffffffffffffffffffffffffffffffffff16815260200190815260200160002081905550600360008154600101919050819055507fae9c2c6481964847714ce58f65a7f6dcc41d0d8394449bacdf161b5920c4744a81604051808273ffffffffffffffffffffffffffffffffffffffff16815260200191505060405180910390a150565b6125fd806200044b6000396000f3fe608060405234801561001057600080fd5b50600436106101375760003560e01c80638da5cb5b116100b8578063aab1867f1161007c578063aab1867f146104cf578063acac2b4814610527578063dc550b1b14610531578063edc922a914610589578063fbf40624146105e8578063fd5fa14e1461060657610137565b80638da5cb5b146103cf5780639478b96e14610403578063955b43151461042157806398ea323014610479578063a137a2501461049757610137565b80636720ceb1116100ff5780636720ceb114610242578063673448dd1461024c57806372dde3fe146102a657806376c37231146102b05780638a355a571461038b57610137565b806305cf8d5d1461013c57806324da7c281461015a57806346e2577a14610178578063504006ca146101bc57806350f3fc81146101ea575b600080fd5b6101446106e1565b6040518082815260200191505060405180910390f35b610162610728565b6040518082815260200191505060405180910390f35b6101ba6004803603602081101561018e57600080fd5b81019080803573ffffffffffffffffffffffffffffffffffffffff16906020019092919050505061072e565b005b6101e8600480360360208110156101d257600080fd5b8101908080359060200190929190505050610a01565b005b6102166004803603602081101561020057600080fd5b8101908080359060200190929190505050610ded565b604051808273ffffffffffffffffffffffffffffffffffffffff16815260200191505060405180910390f35b61024a610e29565b005b61028e6004803603602081101561026257600080fd5b81019080803573ffffffffffffffffffffffffffffffffffffffff169060200190929190505050611015565b60405180821515815260200191505060405180910390f35b6102ae611060565b005b6102dc600480360360208110156102c657600080fd5b8101908080359060200190929190505050611162565b604051808681526020018573ffffffffffffffffffffffffffffffffffffffff168152602001806020018481526020018315158152602001828103825285818151815260200191508051906020019080838360005b8381101561034c578082015181840152602081019050610331565b50505050905090810190601f1680156103795780820380516001836020036101000a031916815260200191505b50965050505050505060405180910390f35b6103cd600480360360208110156103a157600080fd5b81019080803573ffffffffffffffffffffffffffffffffffffffff16906020019092919050505061126a565b005b6103d761148e565b604051808273ffffffffffffffffffffffffffffffffffffffff16815260200191505060405180910390f35b61040b6114b4565b6040518082815260200191505060405180910390f35b6104636004803603602081101561043757600080fd5b81019080803573ffffffffffffffffffffffffffffffffffffffff1690602001909291905050506114ba565b6040518082815260200191505060405180910390f35b6104816115b6565b6040518082815260200191505060405180910390f35b6104cd600480360360408110156104ad57600080fd5b8101908080359060200190929190803590602001909291905050506115bc565b005b610511600480360360208110156104e557600080fd5b81019080803573ffffffffffffffffffffffffffffffffffffffff1690602001909291905050506119c6565b6040518082815260200191505060405180910390f35b61052f6119de565b005b6105736004803603602081101561054757600080fd5b81019080803573ffffffffffffffffffffffffffffffffffffffff169060200190929190505050611e01565b6040518082815260200191505060405180910390f35b610591611e19565b6040518080602001828103825283818151815260200191508051906020019060200280838360005b838110156105d45780820151818401526020810190506105b9565b505050509050019250505060405180910390f35b6105f0611f97565b6040518082815260200191505060405180910390f35b6106df6004803603604081101561061c57600080fd5b81019080803573ffffffffffffffffffffffffffffffffffffffff1690602001909291908035906020019064010000000081111561065957600080fd5b82018360208201111561066b57600080fd5b8035906020019184600183028401116401000000008311171561068d57600080fd5b91908080601f016020809104026020016040519081016040528093929190818152602001838380828437600081840152601f19601f820116905080830192505050505050509192919290505050611f9d565b005b6000600760003373ffffffffffffffffffffffffffffffffffffffff1673ffffffffffffffffffffffffffffffffffffffff16815260200190815260200160002054905090565b60095481565b600160009054906101000a900473ffffffffffffffffffffffffffffffffffffffff1673ffffffffffffffffffffffffffffffffffffffff163373ffffffffffffffffffffffffffffffffffffffff16146107f1576040517f08c379a000000000000000000000000000000000000000000000000000000000815260040180806020018281038252601c8152602001807f4f776e65722063616e2063616c6c20746869732066756e6374696f6e0000000081525060200191505060405180910390fd5b600160ff16600560008373ffffffffffffffffffffffffffffffffffffffff1673ffffffffffffffffffffffffffffffffffffffff1681526020019081526020016000205414156108aa576040517f08c379a000000000000000000000000000000000000000000000000000000000815260040180806020018281038252601a8152602001807f50726f766964657220697320616c72656164792061646465642e00000000000081525060200191505060405180910390fd5b600060ff16600560008373ffffffffffffffffffffffffffffffffffffffff1673ffffffffffffffffffffffffffffffffffffffff168152602001908152602001600020541415610959576006819080600181540180825580915050600190039060005260206000200160009091909190916101000a81548173ffffffffffffffffffffffffffffffffffffffff021916908373ffffffffffffffffffffffffffffffffffffffff1602179055505b600160ff16600560008373ffffffffffffffffffffffffffffffffffffffff1673ffffffffffffffffffffffffffffffffffffffff16815260200190815260200160002081905550600360008154600101919050819055507fae9c2c6481964847714ce58f65a7f6dcc41d0d8394449bacdf161b5920c4744a81604051808273ffffffffffffffffffffffffffffffffffffffff16815260200191505060405180910390a150565b60003390506000603290506000600860009054906101000a900473ffffffffffffffffffffffffffffffffffffffff1673ffffffffffffffffffffffffffffffffffffffff166370a08231306040518263ffffffff1660e01b8152600401808273ffffffffffffffffffffffffffffffffffffffff16815260200191505060206040518083038186803b158015610a9757600080fd5b505afa158015610aab573d6000803e3d6000fd5b505050506040513d6020811015610ac157600080fd5b8101908080519060200190929190505050905081600760008573ffffffffffffffffffffffffffffffffffffffff1673ffffffffffffffffffffffffffffffffffffffff168152602001908152602001600020541015610b6c576040517f08c379a00000000000000000000000000000000000000000000000000000000081526004018080602001828103825260268152602001806125396026913960400191505060405180910390fd5b6000600c60008573ffffffffffffffffffffffffffffffffffffffff1673ffffffffffffffffffffffffffffffffffffffff1681526020019081526020016000205414610c21576040517f08c379a000000000000000000000000000000000000000000000000000000000815260040180806020018281038252601c8152602001807f596f7572206861766520616c72656164792074616b656e206c6f616e0000000081525060200191505060405180910390fd5b83600d541015610c7c576040517f08c379a000000000000000000000000000000000000000000000000000000000815260040180806020018281038252603881526020018061255f6038913960400191505060405180910390fd5b838111610cd4576040517f08c379a000000000000000000000000000000000000000000000000000000000815260040180806020018281038252602d8152602001806124bf602d913960400191505060405180910390fd5b600860009054906101000a900473ffffffffffffffffffffffffffffffffffffffff1673ffffffffffffffffffffffffffffffffffffffff1663a9059cbb33866040518363ffffffff1660e01b8152600401808373ffffffffffffffffffffffffffffffffffffffff16815260200182815260200192505050602060405180830381600087803b158015610d6757600080fd5b505af1158015610d7b573d6000803e3d6000fd5b505050506040513d6020811015610d9157600080fd5b81019080805190602001909291905050505083600c60008573ffffffffffffffffffffffffffffffffffffffff1673ffffffffffffffffffffffffffffffffffffffff1681526020019081526020016000208190555050505050565b60068181548110610dfa57fe5b906000526020600020016000915054906101000a900473ffffffffffffffffffffffffffffffffffffffff1681565b6000339050600860009054906101000a900473ffffffffffffffffffffffffffffffffffffffff1673ffffffffffffffffffffffffffffffffffffffff166323b872dd82306009546040518463ffffffff1660e01b8152600401808473ffffffffffffffffffffffffffffffffffffffff1681526020018373ffffffffffffffffffffffffffffffffffffffff1681526020018281526020019350505050602060405180830381600087803b158015610ee157600080fd5b505af1158015610ef5573d6000803e3d6000fd5b505050506040513d6020811015610f0b57600080fd5b8101908080519060200190929190505050506000600a60008373ffffffffffffffffffffffffffffffffffffffff1673ffffffffffffffffffffffffffffffffffffffff168152602001908152602001600020549050600062278d00420190504282118015610f7957508082105b15610fc957808201600a60008573ffffffffffffffffffffffffffffffffffffffff1673ffffffffffffffffffffffffffffffffffffffff16815260200190815260200160002081905550611010565b804201600a60008573ffffffffffffffffffffffffffffffffffffffff1673ffffffffffffffffffffffffffffffffffffffff168152602001908152602001600020819055505b505050565b6000600a60008373ffffffffffffffffffffffffffffffffffffffff1673ffffffffffffffffffffffffffffffffffffffff1681526020019081526020016000205442109050919050565b60003390506000600c60008373ffffffffffffffffffffffffffffffffffffffff1673ffffffffffffffffffffffffffffffffffffffff168152602001908152602001600020541161111a576040517f08c379a00000000000000000000000000000000000000000000000000000000081526004018080602001828103825260188152602001807f596f7520646f206e6f74206861766520616e79206c6f616e000000000000000081525060200191505060405180910390fd5b6000600c60008373ffffffffffffffffffffffffffffffffffffffff1673ffffffffffffffffffffffffffffffffffffffff1681526020019081526020016000208190555050565b6000818154811061116f57fe5b90600052602060002090600702016000915090508060000154908060010160009054906101000a900473ffffffffffffffffffffffffffffffffffffffff1690806002018054600181600116156101000203166002900480601f0160208091040260200160405190810160405280929190818152602001828054600181600116156101000203166002900480156112475780601f1061121c57610100808354040283529160200191611247565b820191906000526020600020905b81548152906001019060200180831161122a57829003601f168201915b5050505050908060030154908060040160009054906101000a900460ff16905085565b600160009054906101000a900473ffffffffffffffffffffffffffffffffffffffff1673ffffffffffffffffffffffffffffffffffffffff163373ffffffffffffffffffffffffffffffffffffffff161461132d576040517f08c379a000000000000000000000000000000000000000000000000000000000815260040180806020018281038252601c8152602001807f4f776e65722063616e2063616c6c20746869732066756e6374696f6e0000000081525060200191505060405180910390fd5b600160ff16600560008373ffffffffffffffffffffffffffffffffffffffff1673ffffffffffffffffffffffffffffffffffffffff16815260200190815260200160002054146113e5576040517f08c379a000000000000000000000000000000000000000000000000000000000815260040180806020018281038252601c8152602001807f50726f766964657220697320616c72656164792072656d6f7665642e0000000081525060200191505060405180910390fd5b600260ff16600560008373ffffffffffffffffffffffffffffffffffffffff1673ffffffffffffffffffffffffffffffffffffffff1681526020019081526020016000208190555060036000815460019003919050819055507f1589f8555933761a3cff8aa925061be3b46e2dd43f621322ab611d300f62b1d981604051808273ffffffffffffffffffffffffffffffffffffffff16815260200191505060405180910390a150565b600160009054906101000a900473ffffffffffffffffffffffffffffffffffffffff1681565b60025481565b6000818073ffffffffffffffffffffffffffffffffffffffff163373ffffffffffffffffffffffffffffffffffffffff1614806114fc57506114fb33611015565b5b61156e576040517f08c379a000000000000000000000000000000000000000000000000000000000815260040180806020018281038252601d8152602001807f506c6561736520706179204249524420746f20426972644f7261636c6500000081525060200191505060405180910390fd5b600760008473ffffffffffffffffffffffffffffffffffffffff1673ffffffffffffffffffffffffffffffffffffffff16815260200190815260200160002054915050919050565b60035481565b60008083815481106115ca57fe5b90600052602060002090600702019050600015158160040160009054906101000a900460ff16151514611648576040517f08c379a00000000000000000000000000000000000000000000000000000000081526004018080602001828103825260318152602001806125976031913960400191505060405180910390fd5b600160ff16600560003373ffffffffffffffffffffffffffffffffffffffff1673ffffffffffffffffffffffffffffffffffffffff16815260200190815260200160002054146116e3576040517f08c379a000000000000000000000000000000000000000000000000000000000815260040180806020018281038252602381526020018061249c6023913960400191505060405180910390fd5b600060ff168160060160003373ffffffffffffffffffffffffffffffffffffffff1673ffffffffffffffffffffffffffffffffffffffff168152602001908152602001600020541461179d576040517f08c379a000000000000000000000000000000000000000000000000000000000815260040180806020018281038252601e8152602001807f4572726f723a20596f75206861766520616c726561647920766f7465642e000081525060200191505060405180910390fd5b600260ff168160060160003373ffffffffffffffffffffffffffffffffffffffff1673ffffffffffffffffffffffffffffffffffffffff168152602001908152602001600020819055506000816005016000848152602001908152602001600020600081546001019190508190559050611815612232565b81106119c05760018260040160006101000a81548160ff02191690831515021790555082826003018190555082600760008460010160009054906101000a900473ffffffffffffffffffffffffffffffffffffffff1673ffffffffffffffffffffffffffffffffffffffff1673ffffffffffffffffffffffffffffffffffffffff168152602001908152602001600020819055507f9531595c5c00a6c9f988db25ffcf14298458d0412319d740301087730421484e82600001548360010160009054906101000a900473ffffffffffffffffffffffffffffffffffffffff16846002018560030154604051808581526020018473ffffffffffffffffffffffffffffffffffffffff168152602001806020018381526020018281038252848181546001816001161561010002031660029004815260200191508054600181600116156101000203166002900480156119ae5780601f10611983576101008083540402835291602001916119ae565b820191906000526020600020905b81548152906001019060200180831161199157829003601f168201915b50509550505050505060405180910390a15b50505050565b600a6020528060005260406000206000915090505481565b6000600b5442039050620151808111611a42576040517f08c379a000000000000000000000000000000000000000000000000000000000815260040180806020018281038252602c8152602001806124ec602c913960400191505060405180910390fd5b6000603290506000600860009054906101000a900473ffffffffffffffffffffffffffffffffffffffff1673ffffffffffffffffffffffffffffffffffffffff166370a08231306040518263ffffffff1660e01b8152600401808273ffffffffffffffffffffffffffffffffffffffff16815260200191505060206040518083038186803b158015611ad357600080fd5b505afa158015611ae7573d6000803e3d6000fd5b505050506040513d6020811015611afd57600080fd5b810190808051906020019092919050505090506000611b386064611b2a858561226890919063ffffffff16565b6122ee90919063ffffffff16565b9050600081830390506000611b58600354836122ee90919063ffffffff16565b9050600860009054906101000a900473ffffffffffffffffffffffffffffffffffffffff1673ffffffffffffffffffffffffffffffffffffffff1663a9059cbb600160009054906101000a900473ffffffffffffffffffffffffffffffffffffffff16856040518363ffffffff1660e01b8152600401808373ffffffffffffffffffffffffffffffffffffffff16815260200182815260200192505050602060405180830381600087803b158015611c0f57600080fd5b505af1158015611c23573d6000803e3d6000fd5b505050506040513d6020811015611c3957600080fd5b81019080805190602001909291905050505060005b600680549050811015611df157600160ff166005600060068481548110611c7157fe5b9060005260206000200160009054906101000a900473ffffffffffffffffffffffffffffffffffffffff1673ffffffffffffffffffffffffffffffffffffffff1673ffffffffffffffffffffffffffffffffffffffff168152602001908152602001600020541415611de457600860009054906101000a900473ffffffffffffffffffffffffffffffffffffffff1673ffffffffffffffffffffffffffffffffffffffff1663a9059cbb60068381548110611d2857fe5b9060005260206000200160009054906101000a900473ffffffffffffffffffffffffffffffffffffffff16846040518363ffffffff1660e01b8152600401808373ffffffffffffffffffffffffffffffffffffffff16815260200182815260200192505050602060405180830381600087803b158015611da757600080fd5b505af1158015611dbb573d6000803e3d6000fd5b505050506040513d6020811015611dd157600080fd5b8101908080519060200190929190505050505b8080600101915050611c4e565b5042600b81905550505050505050565b600c6020528060005260406000206000915090505481565b60608060035467ffffffffffffffff81118015611e3557600080fd5b50604051908082528060200260200182016040528015611e645781602001602082028036833780820191505090505b5090506000805b600680549050811015611f8e57600160ff166005600060068481548110611e8e57fe5b9060005260206000200160009054906101000a900473ffffffffffffffffffffffffffffffffffffffff1673ffffffffffffffffffffffffffffffffffffffff1673ffffffffffffffffffffffffffffffffffffffff168152602001908152602001600020541415611f815760068181548110611f0757fe5b9060005260206000200160009054906101000a900473ffffffffffffffffffffffffffffffffffffffff16838381518110611f3e57fe5b602002602001019073ffffffffffffffffffffffffffffffffffffffff16908173ffffffffffffffffffffffffffffffffffffffff168152505081806001019250505b8080600101915050611e6b565b50819250505090565b60045481565b818073ffffffffffffffffffffffffffffffffffffffff163373ffffffffffffffffffffffffffffffffffffffff161480611fdd5750611fdc33611015565b5b61204f576040517f08c379a000000000000000000000000000000000000000000000000000000000815260040180806020018281038252601d8152602001807f506c6561736520706179204249524420746f20426972644f7261636c6500000081525060200191505060405180910390fd5b60006040518060a0016040528060045481526020018573ffffffffffffffffffffffffffffffffffffffff168152602001848152602001600081526020016000151581525090806001815401808255809150506001900390600052602060002090600702016000909190919091506000820151816000015560208201518160010160006101000a81548173ffffffffffffffffffffffffffffffffffffffff021916908373ffffffffffffffffffffffffffffffffffffffff160217905550604082015181600201908051906020019061212a9291906123fe565b506060820151816003015560808201518160040160006101000a81548160ff02191690831515021790555050507f28ac703d033e970fd29eac4b6228bfb41686470bcba7bcc0b5a8dbb773a5c55d6004548484604051808481526020018373ffffffffffffffffffffffffffffffffffffffff16815260200180602001828103825283818151815260200191508051906020019080838360005b838110156121df5780820151818401526020810190506121c4565b50505050905090810190601f16801561220c5780820380516001836020036101000a031916815260200191505b5094505050505060405180910390a1600460008154809291906001019190505550505050565b60008061225f606461225160025460035461226890919063ffffffff16565b6122ee90919063ffffffff16565b90508091505090565b60008083141561227b57600090506122e8565b600082840290508284828161228c57fe5b04146122e3576040517f08c379a00000000000000000000000000000000000000000000000000000000081526004018080602001828103825260218152602001806125186021913960400191505060405180910390fd5b809150505b92915050565b600061233083836040518060400160405280601a81526020017f536166654d6174683a206469766973696f6e206279207a65726f000000000000815250612338565b905092915050565b600080831182906123e4576040517f08c379a00000000000000000000000000000000000000000000000000000000081526004018080602001828103825283818151815260200191508051906020019080838360005b838110156123a957808201518184015260208101905061238e565b50505050905090810190601f1680156123d65780820380516001836020036101000a031916815260200191505b509250505060405180910390fd5b5060008385816123f057fe5b049050809150509392505050565b828054600181600116156101000203166002900490600052602060002090601f016020900481019282601f1061243f57805160ff191683800117855561246d565b8280016001018555821561246d579182015b8281111561246c578251825591602001919060010190612451565b5b50905061247a919061247e565b5090565b5b8082111561249757600081600090555060010161247f565b509056fe4572726f723a20596f7520617265206e6f7420616c6c6f77656420746f20766f74652e57652068617665206e6f742073756666696369656e742066756e647320746f20616c6c6f6361746520796f752e596f752063616e2063616c6c207265776172642070726f766964657273206f6e636520696e20323420687273536166654d6174683a206d756c7469706c69636174696f6e206f766572666c6f77596f757220726174696e672073686f756c64206265206d6f7265207468616e2035302f313030596f752063616e206e6f742074616b65206c6f616e206d6f7265207468616e206d61784c6f616e416d6f756e74203d2031303020424952444572726f723a20436f6e73656e73757320697320636f6d706c65746520736f20796f752063616e206e6f7420766f74652ea26469706673582212207ca073caa07c35a76318956bfc1e3eb5fc9eea11e023ff1c6bcf8ad20d91e35564736f6c634300060c0033",
  "immutableReferences": {},
  "source": "pragma solidity 0.6.12;\nimport \"./BirdToken.sol\";\n\n//This contract's last version is at https://kovan.etherscan.io/address/0x14A95EC3ae9405E427595c99973447b55250Add8#code\n/**\nBird On-chain Oracle to confirm rating with 50% consensus before update using the off-chain API https://www.bird.money/docs\n*/\n\n// Bird.Money Token $BIRD\n//  2020 Bird Money\n// SPDX-License-Identifier: MIT\n\ncontract BirdOracle {\n    using SafeMath for uint256;\n\n    BirdRequest[] public onChainRequests; //keep track of list of on-chain\n\n    address public owner;\n\n    uint256 public minConsensusPercentage = 50; //minimum percentage of consensus before confirmation\n    uint256 public birdNest = 0; // birds in nest count // total trusted providers\n    uint256 public trackId = 0;\n\n    //with respect to all requests to get rating\n    uint8 constant NOT_TRUSTED = 0;\n    uint8 constant TRUSTED = 1;\n    uint8 constant WAS_TRUSTED = 2;\n\n    //with respect to specific request to get rating\n    uint8 constant NOT_VOTED = 0;\n    uint8 constant VOTED = 2;\n\n    mapping(address => uint256) statusOf; //offchain data provider address => TRUSTED or NOT\n    address[] public providers;\n\n    function getProviders() public view returns (address[] memory) {\n        address[] memory trustedProviders = new address[](birdNest);\n        uint256 t_i = 0;\n        for (uint256 i = 0; i < providers.length; i++) {\n            if (statusOf[providers[i]] == TRUSTED) {\n                trustedProviders[t_i] = providers[i];\n                t_i++;\n            }\n        }\n        return trustedProviders;\n    }\n\n    /**\n     * Bird Standard API Request\n     * id: \"1\"\n     * ethAddress: address(0xcF01971DB0CAB2CBeE4A8C21BB7638aC1FA1c38c)\n     * key: \"bird_rating\"\n     * value: 400000000000000000   // 4.0\n     * resolved: true / false\n     * response: 000000010000=> 2  (specific answer => number of votes of that answer)\n     * nest: approved off-chain oracles nest/addresses and keep track of vote (1= TRUSTED and not voted, 2=voted)\n     */\n\n    struct BirdRequest {\n        uint256 id;\n        address ethAddress;\n        string key;\n        uint256 value;\n        bool resolved;\n        mapping(uint256 => uint256) votesOf; //specific answer => number of votes of that answer\n        mapping(address => uint256) statusOf; //offchain data provider address => VOTED or NOT\n    }\n\n    mapping(address => uint256) private ratingOf; //saved ratings after consensus\n\n    /**\n     * Bird Standard API Request\n     * Off-Chain-Request from outside the blockchain\n     */\n    event OffChainRequest(uint256 id, address ethAddress, string key);\n\n    /**\n     * To call when there is consensus on final result\n     */\n    event UpdatedRequest(\n        uint256 id,\n        address ethAddress,\n        string key,\n        uint256 value\n    );\n\n    event ProviderAdded(address provider);\n    event ProviderRemoved(address provider);\n\n    modifier onlyOwner {\n        require(msg.sender == owner, \"Owner can call this function\");\n        _;\n    }\n\n    modifier paymentApproved(address _ethAddressToQuery) {\n        require(\n            msg.sender == _ethAddressToQuery || isApproved(msg.sender),\n            \"Please pay BIRD to BirdOracle\"\n        );\n        _;\n    }\n\n    constructor(address _birdTokenAddr) public {\n        owner = msg.sender;\n        birdToken = BirdToken(_birdTokenAddr);\n\n        /**\n         * Add some TRUSTED oracles in bird nest\n         */\n        addProvider(0x35fA8692EB10F87D17Cd27fB5488598D33B023E5);\n        addProvider(0x58Fd79D34Edc6362f92c6799eE46945113A6EA91);\n        addProvider(0x0e4338DFEdA53Bc35467a09Da483410664d34e88);\n    }\n\n    function addProvider(address _provider) public onlyOwner {\n        require(statusOf[_provider] != TRUSTED, \"Provider is already added.\");\n\n        if (statusOf[_provider] == NOT_TRUSTED) providers.push(_provider);\n        statusOf[_provider] = TRUSTED;\n        ++birdNest;\n\n        emit ProviderAdded(_provider);\n    }\n\n    function removeProvider(address _provider) public onlyOwner {\n        require(statusOf[_provider] == TRUSTED, \"Provider is already removed.\");\n\n        statusOf[_provider] = WAS_TRUSTED;\n        --birdNest;\n\n        emit ProviderRemoved(_provider);\n    }\n\n    function newChainRequest(address _ethAddress, string memory _key)\n        public\n        paymentApproved(_ethAddress)\n    {\n        onChainRequests.push(\n            BirdRequest({\n                id: trackId,\n                ethAddress: _ethAddress,\n                key: _key,\n                value: 0, // if resolved is true then read value\n                resolved: false // if resolved is false then value do not matter\n            })\n        );\n\n        /**\n         * Off-Chain event trigger\n         */\n        emit OffChainRequest(trackId, _ethAddress, _key);\n\n        /**\n         * update total number of requests\n         */\n        trackId++;\n    }\n\n    /**\n     * called by the Off-Chain oracle to record its answer\n     */\n    function updatedChainRequest(uint256 _id, uint256 _response) public {\n        BirdRequest storage req = onChainRequests[_id];\n\n        require(\n            req.resolved == false,\n            \"Error: Consensus is complete so you can not vote.\"\n        );\n        require(\n            statusOf[msg.sender] == TRUSTED,\n            \"Error: You are not allowed to vote.\"\n        );\n\n        require(\n            req.statusOf[msg.sender] == NOT_VOTED,\n            \"Error: You have already voted.\"\n        );\n\n        req.statusOf[msg.sender] = VOTED;\n        uint256 thisAnswerVotes = ++req.votesOf[_response];\n\n        if (thisAnswerVotes >= _minConsensus()) {\n            req.resolved = true;\n            req.value = _response;\n            ratingOf[req.ethAddress] = _response;\n            emit UpdatedRequest(req.id, req.ethAddress, req.key, req.value);\n        }\n    }\n\n    function _minConsensus() private view returns (uint256) {\n        uint256 minConsensus = birdNest.mul(minConsensusPercentage).div(100);\n        return minConsensus;\n    }\n\n    function getRatingByAddress(address _ethAddress)\n        public\n        view\n        paymentApproved(_ethAddress)\n        returns (uint256)\n    {\n        return ratingOf[_ethAddress];\n    }\n\n    function getRating() public view returns (uint256) {\n        return ratingOf[msg.sender];\n    }\n\n    BirdToken birdToken;\n\n    uint256 public priceToAccessOracle = 1 * 1e18; //rate of 30 days to access data is 1 BIRD\n    mapping(address => uint256) public dueDateOf; // who paid the money at whatis his due date. //handle case a person called\n\n    function sendPayment() public {\n        address buyer = msg.sender;\n        birdToken.transferFrom(buyer, address(this), priceToAccessOracle); // charge money from sender if he wants to access our oracle\n\n        uint256 dueDate = dueDateOf[buyer];\n        uint256 next30Days = now + 30 days;\n\n        if (dueDate > now && dueDate < next30Days) {\n            dueDateOf[buyer] = dueDate + next30Days;\n        } else {\n            dueDateOf[buyer] = now + next30Days;\n        }\n    }\n\n    uint256 lastTimeRewarded = 0;\n\n    function rewardProviders() public {\n        //rewardProviders can be called once in a day\n        uint256 timeAfterRewarded = now - lastTimeRewarded;\n        require(\n            timeAfterRewarded > 24 hours,\n            \"You can call reward providers once in 24 hrs\"\n        );\n\n        //give 50% BIRD in this contract to owner and 50% to providers\n        uint256 rewardToOwnerPercentage = 50; // 50% reward to owner and rest money to providers\n\n        uint256 balance = birdToken.balanceOf(address(this));\n        uint256 rewardToOwner = balance.mul(rewardToOwnerPercentage).div(100);\n        uint256 rewardToProviders = balance - rewardToOwner;\n        uint256 rewardToEachProvider = rewardToProviders.div(birdNest);\n\n        birdToken.transfer(owner, rewardToOwner);\n\n        for (uint256 i = 0; i < providers.length; i++) {\n            if (statusOf[providers[i]] == TRUSTED) {\n                birdToken.transfer(providers[i], rewardToEachProvider);\n            }\n        }\n        lastTimeRewarded = now;\n    }\n\n    function isApproved(address _addr) public view returns (bool) {\n        return now < dueDateOf[_addr];\n    }\n\n    mapping(address => uint256) public loanOf;\n    uint256 maxLoanAmount = 100; // max loan at once is 100 Bird\n\n    //this contract has alot of $BIRD in it. this contract gives loans to any eth address who calls this func.\n    function getLoan(uint256 requestedLoanInBird) public {\n        address sender = msg.sender;\n        uint256 minRatingToGetLoan = 50; //50 by 100\n        uint256 thisContractBalance = birdToken.balanceOf(address(this));\n\n        require(\n            ratingOf[sender] >= minRatingToGetLoan,\n            \"Your rating should be more than 50/100\"\n        );\n        require(loanOf[sender] == 0, \"Your have already taken loan\");\n        require(\n            maxLoanAmount >= requestedLoanInBird,\n            \"You can not take loan more than maxLoanAmount = 100 BIRD\"\n        );\n        require(\n            thisContractBalance > requestedLoanInBird,\n            \"We have not sufficient funds to allocate you.\"\n        );\n\n        birdToken.transfer(msg.sender, requestedLoanInBird);\n        loanOf[sender] = requestedLoanInBird;\n    }\n\n    function returnLoan() public {\n        address sender = msg.sender;\n\n        require(loanOf[sender] > 0, \"You do not have any loan\");\n\n        loanOf[sender] = 0;\n    }\n}\n",
  "sourcePath": "/home/muneeb/work/bird-contract/contracts/BirdOracle.sol",
  "compiler": {
    "name": "solc",
    "version": "0.6.12+commit.27d51765.Emscripten.clang"
  },
  "schemaVersion": "3.3.3",
  "updatedAt": "2021-03-04T06:24:07.178Z",
  "networkType": "ethereum",
  "devdoc": {
    "kind": "dev",
    "methods": {},
    "version": 1
  },
  "userdoc": {
    "events": {
      "OffChainRequest(uint256,address,string)": {
        "notice": "Bird Standard API Request Off-Chain-Request from outside the blockchain"
      },
      "UpdatedRequest(uint256,address,string,uint256)": {
        "notice": "To call when there is consensus on final result"
      }
    },
    "kind": "user",
    "methods": {
      "updatedChainRequest(uint256,uint256)": {
        "notice": "called by the Off-Chain oracle to record its answer"
      }
    },
    "notice": "Bird On-chain Oracle to confirm rating with 50% consensus before update using the off-chain API https://www.bird.money/docs",
    "version": 1
  }
}